{
  "contractName": "LTSConsumer",
  "abi": [
    {
      "inputs": [
        {
          "internalType": "uint64",
          "name": "subscriptionId",
          "type": "uint64"
        }
      ],
      "stateMutability": "nonpayable",
      "type": "constructor"
    },
    {
      "inputs": [
        {
          "internalType": "address",
          "name": "have",
          "type": "address"
        },
        {
          "internalType": "address",
          "name": "want",
          "type": "address"
        }
      ],
      "name": "OnlyCoordinatorCanFulfill",
      "type": "error"
    },
    {
      "anonymous": false,
      "inputs": [
        {
          "indexed": false,
          "internalType": "uint256",
          "name": "requestId",
          "type": "uint256"
        },
        {
          "indexed": false,
          "internalType": "uint256[]",
          "name": "randomWords",
          "type": "uint256[]"
        }
      ],
      "name": "RequestFulfilled",
      "type": "event"
    },
    {
      "anonymous": false,
      "inputs": [
        {
          "indexed": false,
          "internalType": "uint256",
          "name": "requestId",
          "type": "uint256"
        },
        {
          "indexed": false,
          "internalType": "uint32",
          "name": "numWords",
          "type": "uint32"
        }
      ],
      "name": "RequestSent",
      "type": "event"
    },
    {
      "anonymous": false,
      "inputs": [
        {
          "indexed": true,
          "internalType": "bytes32",
          "name": "role",
          "type": "bytes32"
        },
        {
          "indexed": true,
          "internalType": "bytes32",
          "name": "previousAdminRole",
          "type": "bytes32"
        },
        {
          "indexed": true,
          "internalType": "bytes32",
          "name": "newAdminRole",
          "type": "bytes32"
        }
      ],
      "name": "RoleAdminChanged",
      "type": "event"
    },
    {
      "anonymous": false,
      "inputs": [
        {
          "indexed": true,
          "internalType": "bytes32",
          "name": "role",
          "type": "bytes32"
        },
        {
          "indexed": true,
          "internalType": "address",
          "name": "account",
          "type": "address"
        },
        {
          "indexed": true,
          "internalType": "address",
          "name": "sender",
          "type": "address"
        }
      ],
      "name": "RoleGranted",
      "type": "event"
    },
    {
      "anonymous": false,
      "inputs": [
        {
          "indexed": true,
          "internalType": "bytes32",
          "name": "role",
          "type": "bytes32"
        },
        {
          "indexed": true,
          "internalType": "address",
          "name": "account",
          "type": "address"
        },
        {
          "indexed": true,
          "internalType": "address",
          "name": "sender",
          "type": "address"
        }
      ],
      "name": "RoleRevoked",
      "type": "event"
    },
    {
      "inputs": [],
      "name": "DEFAULT_ADMIN_ROLE",
      "outputs": [
        {
          "internalType": "bytes32",
          "name": "",
          "type": "bytes32"
        }
      ],
      "stateMutability": "view",
      "type": "function",
      "constant": true
    },
    {
      "inputs": [],
      "name": "REQUEST_RANDOM",
      "outputs": [
        {
          "internalType": "bytes32",
          "name": "",
          "type": "bytes32"
        }
      ],
      "stateMutability": "view",
      "type": "function",
      "constant": true
    },
    {
      "inputs": [
        {
          "internalType": "bytes32",
          "name": "role",
          "type": "bytes32"
        }
      ],
      "name": "getRoleAdmin",
      "outputs": [
        {
          "internalType": "bytes32",
          "name": "",
          "type": "bytes32"
        }
      ],
      "stateMutability": "view",
      "type": "function",
      "constant": true
    },
    {
      "inputs": [
        {
          "internalType": "bytes32",
          "name": "role",
          "type": "bytes32"
        },
        {
          "internalType": "address",
          "name": "account",
          "type": "address"
        }
      ],
      "name": "grantRole",
      "outputs": [],
      "stateMutability": "nonpayable",
      "type": "function"
    },
    {
      "inputs": [
        {
          "internalType": "bytes32",
          "name": "role",
          "type": "bytes32"
        },
        {
          "internalType": "address",
          "name": "account",
          "type": "address"
        }
      ],
      "name": "hasRole",
      "outputs": [
        {
          "internalType": "bool",
          "name": "",
          "type": "bool"
        }
      ],
      "stateMutability": "view",
      "type": "function",
      "constant": true
    },
    {
      "inputs": [],
      "name": "lastRequestId",
      "outputs": [
        {
          "internalType": "uint256",
          "name": "",
          "type": "uint256"
        }
      ],
      "stateMutability": "view",
      "type": "function",
      "constant": true
    },
    {
      "inputs": [
        {
          "internalType": "uint256",
          "name": "requestId",
          "type": "uint256"
        },
        {
          "internalType": "uint256[]",
          "name": "randomWords",
          "type": "uint256[]"
        }
      ],
      "name": "rawFulfillRandomWords",
      "outputs": [],
      "stateMutability": "nonpayable",
      "type": "function"
    },
    {
      "inputs": [
        {
          "internalType": "bytes32",
          "name": "role",
          "type": "bytes32"
        },
        {
          "internalType": "address",
          "name": "account",
          "type": "address"
        }
      ],
      "name": "renounceRole",
      "outputs": [],
      "stateMutability": "nonpayable",
      "type": "function"
    },
    {
      "inputs": [
        {
          "internalType": "uint256",
          "name": "",
          "type": "uint256"
        }
      ],
      "name": "requestIds",
      "outputs": [
        {
          "internalType": "uint256",
          "name": "",
          "type": "uint256"
        }
      ],
      "stateMutability": "view",
      "type": "function",
      "constant": true
    },
    {
      "inputs": [
        {
          "internalType": "bytes32",
          "name": "role",
          "type": "bytes32"
        },
        {
          "internalType": "address",
          "name": "account",
          "type": "address"
        }
      ],
      "name": "revokeRole",
      "outputs": [],
      "stateMutability": "nonpayable",
      "type": "function"
    },
    {
      "inputs": [
        {
          "internalType": "uint256",
          "name": "",
          "type": "uint256"
        }
      ],
      "name": "s_requests",
      "outputs": [
        {
          "internalType": "bool",
          "name": "fulfilled",
          "type": "bool"
        },
        {
          "internalType": "bool",
          "name": "exists",
          "type": "bool"
        }
      ],
      "stateMutability": "view",
      "type": "function",
      "constant": true
    },
    {
      "inputs": [
        {
          "internalType": "bytes4",
          "name": "interfaceId",
          "type": "bytes4"
        }
      ],
      "name": "supportsInterface",
      "outputs": [
        {
          "internalType": "bool",
          "name": "",
          "type": "bool"
        }
      ],
      "stateMutability": "view",
      "type": "function",
      "constant": true
    },
    {
      "inputs": [],
      "name": "requestRandomWords",
      "outputs": [
        {
          "internalType": "uint256",
          "name": "requestId",
          "type": "uint256"
        }
      ],
      "stateMutability": "nonpayable",
      "type": "function"
    },
    {
      "inputs": [
        {
          "internalType": "uint256",
          "name": "_requestId",
          "type": "uint256"
        }
      ],
      "name": "getRequestStatus",
      "outputs": [
        {
          "internalType": "bool",
          "name": "fulfilled",
          "type": "bool"
        },
        {
          "internalType": "uint256[]",
          "name": "randomWords",
          "type": "uint256[]"
        }
      ],
      "stateMutability": "view",
      "type": "function",
      "constant": true
    }
  ],
  "bytecode": "0x60a06040527f79d3d8832d904592c0bf9818b621522c988bb8b0c05cdc3b15aea1b6e8db0c15600555600680546001605060020a03191666010003000186a01790553480156200004e57600080fd5b50604051620012ed380380620012ed83398101604081905262000071916200020a565b732ca8e0c643bde4c2e08ab1fa0da3401adad7734d6080526200009f60003364010000000062000140810204565b620000d47fbeae89bf8d1683e68a5a858eedebc5d526df1f91a37b9514d88631e7892f4fa23364010000000062000140810204565b600280546001604060020a0390921674010000000000000000000000000000000000000000027fffffffff0000000000000000000000000000000000000000000000000000000090921691909117732ca8e0c643bde4c2e08ab1fa0da3401adad7734d1790556200023c565b620001558282640100000000620001dd810204565b620001d957600082815260208181526040808320600160a060020a03851684529091529020805460ff191660011790556200019864010000000062000206810204565b600160a060020a031681600160a060020a0316837f2f8788117e7eff1d82e926ec794901d17c78024a50270940304540a733656f0d60405160405180910390a45b5050565b600091825260208281526040808420600160a060020a0393909316845291905290205460ff1690565b3390565b6000602082840312156200021d57600080fd5b81516001604060020a03811681146200023557600080fd5b9392505050565b60805161108e6200025f6000396000818161031b0152610376015261108e6000f3fe608060405234801561001057600080fd5b5060043610610107576000357c01000000000000000000000000000000000000000000000000000000009004806391d14854116100a9578063d547741f11610083578063d547741f14610238578063d8a4676f1461024b578063e0c862891461026c578063fc2a88c31461027457600080fd5b806391d14854146101da578063a168fa89146101ed578063a217fddf1461023057600080fd5b80632f2ff15d116100e55780632f2ff15d1461017a57806336568abe1461018d5780638723bb60146101a05780638796ba8c146101c757600080fd5b806301ffc9a71461010c5780631fe543e314610134578063248a9ca314610149575b600080fd5b61011f61011a366004610cc5565b61027d565b60405190151581526020015b60405180910390f35b610147610142366004610d33565b610310565b005b61016c610157366004610dfc565b60009081526020819052604090206001015490565b60405190815260200161012b565b610147610188366004610e15565b6103b6565b61014761019b366004610e15565b6103e0565b61016c7fbeae89bf8d1683e68a5a858eedebc5d526df1f91a37b9514d88631e7892f4fa281565b61016c6101d5366004610dfc565b61046b565b61011f6101e8366004610e15565b61048c565b6102196101fb366004610dfc565b60016020526000908152604090205460ff8082169161010090041682565b60408051921515835290151560208301520161012b565b61016c600081565b610147610246366004610e15565b6104b5565b61025e610259366004610dfc565b6104da565b60405161012b929190610e8c565b61016c6105db565b61016c60045481565b60007bffffffffffffffffffffffffffffffffffffffffffffffffffffffff1982167f7965db0b00000000000000000000000000000000000000000000000000000000148061030a57507f01ffc9a7000000000000000000000000000000000000000000000000000000007bffffffffffffffffffffffffffffffffffffffffffffffffffffffff198316145b92915050565b33600160a060020a037f000000000000000000000000000000000000000000000000000000000000000016146103a8576040517f1cf993f4000000000000000000000000000000000000000000000000000000008152336004820152600160a060020a037f00000000000000000000000000000000000000000000000000000000000000001660248201526044015b60405180910390fd5b6103b282826107ed565b5050565b6000828152602081905260409020600101546103d1816108c0565b6103db83836108cd565b505050565b600160a060020a03811633146104615760405160e560020a62461bcd02815260206004820152602f60248201527f416363657373436f6e74726f6c3a2063616e206f6e6c792072656e6f756e636560448201527f20726f6c657320666f722073656c660000000000000000000000000000000000606482015260840161039f565b6103b28282610951565b6003818154811061047b57600080fd5b600091825260209091200154905081565b600091825260208281526040808420600160a060020a0393909316845291905290205460ff1690565b6000828152602081905260409020600101546104d0816108c0565b6103db8383610951565b600081815260016020526040812054606090610100900460ff166105435760405160e560020a62461bcd02815260206004820152601160248201527f72657175657374206e6f7420666f756e64000000000000000000000000000000604482015260640161039f565b60008381526001602081815260408084208151606081018352815460ff8082161515835261010090910416151581850152938101805483518186028101860185528181529294938601938301828280156105bc57602002820191906000526020600020905b8154815260200190600101908083116105a8575b5050505050815250509050806000015181604001519250925050915091565b60007fbeae89bf8d1683e68a5a858eedebc5d526df1f91a37b9514d88631e7892f4fa2610607816108c0565b6002546005546006546040517f5d3b1d30000000000000000000000000000000000000000000000000000000008152600481019290925274010000000000000000000000000000000000000000830467ffffffffffffffff166024830152640100000000810461ffff16604483015263ffffffff80821660648401526601000000000000909104166084820152600160a060020a0390911690635d3b1d309060a4016020604051808303816000875af11580156106c8573d6000803e3d6000fd5b505050506040513d601f19601f820116820180604052508101906106ec9190610eaf565b60408051606081018252600080825260016020808401828152855184815280830187528587019081528785528383529590932084518154945161ffff1990951690151561ff001916176101009415159490940293909317835593518051959750929491936107609391850192910190610c6e565b5050600380546001810182556000919091527fc2575a0e9e593c00f959f8c92f12db2869c3395a3b0502d05e2516446f71f85b0183905550600482905560065460408051848152660100000000000090920463ffffffff1660208301527fcc58b13ad3eab50626c6a6300b1d139cd6ebb1688a7cced9461c2f7e762665ee910160405180910390a15b5090565b600082815260016020526040902054610100900460ff166108535760405160e560020a62461bcd02815260206004820152601160248201527f72657175657374206e6f7420666f756e64000000000000000000000000000000604482015260640161039f565b6000828152600160208181526040909220805460ff191682178155835161088293919092019190840190610c6e565b507ffe2e2d779dba245964d4e3ef9b994be63856fd568bf7d3ca9e224755cb1bd54d82826040516108b4929190610ec8565b60405180910390a15050565b6108ca81336109b6565b50565b6108d7828261048c565b6103b257600082815260208181526040808320600160a060020a03851684529091529020805460ff1916600117905561090d3390565b600160a060020a031681600160a060020a0316837f2f8788117e7eff1d82e926ec794901d17c78024a50270940304540a733656f0d60405160405180910390a45050565b61095b828261048c565b156103b257600082815260208181526040808320600160a060020a0385168085529252808320805460ff1916905551339285917ff6391f5c32d9c69d2a47ea670b442974b53935d1edc7fd64eb21e047a839171b9190a45050565b6109c0828261048c565b6103b2576109d881600160a060020a03166014610a1d565b6109e3836020610a1d565b6040516020016109f4929190610f05565b60408051601f198184030181529082905260e560020a62461bcd02825261039f91600401610f86565b60606000610a2c836002610fe8565b610a37906002610fff565b67ffffffffffffffff811115610a4f57610a4f610d04565b6040519080825280601f01601f191660200182016040528015610a79576020820181803683370190505b5090507f300000000000000000000000000000000000000000000000000000000000000081600081518110610ab057610ab0611012565b60200101907effffffffffffffffffffffffffffffffffffffffffffffffffffffffffffff1916908160001a9053507f780000000000000000000000000000000000000000000000000000000000000081600181518110610b1357610b13611012565b60200101907effffffffffffffffffffffffffffffffffffffffffffffffffffffffffffff1916908160001a9053506000610b4f846002610fe8565b610b5a906001610fff565b90505b6001811115610c15577f303132333435363738396162636465660000000000000000000000000000000085600f1660108110610b9b57610b9b611012565b1a7f010000000000000000000000000000000000000000000000000000000000000002828281518110610bd057610bd0611012565b60200101907effffffffffffffffffffffffffffffffffffffffffffffffffffffffffffff1916908160001a905350601090940493610c0e81611041565b9050610b5d565b508315610c675760405160e560020a62461bcd02815260206004820181905260248201527f537472696e67733a20686578206c656e67746820696e73756666696369656e74604482015260640161039f565b9392505050565b828054828255906000526020600020908101928215610ca9579160200282015b82811115610ca9578251825591602001919060010190610c8e565b506107e99291505b808211156107e95760008155600101610cb1565b600060208284031215610cd757600080fd5b81357bffffffffffffffffffffffffffffffffffffffffffffffffffffffff1981168114610c6757600080fd5b7f4e487b7100000000000000000000000000000000000000000000000000000000600052604160045260246000fd5b60008060408385031215610d4657600080fd5b8235915060208084013567ffffffffffffffff80821115610d6657600080fd5b818601915086601f830112610d7a57600080fd5b813581811115610d8c57610d8c610d04565b838102604051601f19603f83011681018181108582111715610db057610db0610d04565b604052918252848201925083810185019189831115610dce57600080fd5b938501935b82851015610dec57843584529385019392850192610dd3565b8096505050505050509250929050565b600060208284031215610e0e57600080fd5b5035919050565b60008060408385031215610e2857600080fd5b823591506020830135600160a060020a0381168114610e4657600080fd5b809150509250929050565b600081518084526020808501945080840160005b83811015610e8157815187529582019590820190600101610e65565b509495945050505050565b8215158152604060208201526000610ea76040830184610e51565b949350505050565b600060208284031215610ec157600080fd5b5051919050565b828152604060208201526000610ea76040830184610e51565b60005b83811015610efc578181015183820152602001610ee4565b50506000910152565b7f416363657373436f6e74726f6c3a206163636f756e7420000000000000000000815260008351610f3d816017850160208801610ee1565b7f206973206d697373696e6720726f6c65200000000000000000000000000000006017918401918201528351610f7a816028840160208801610ee1565b01602801949350505050565b6020815260008251806020840152610fa5816040850160208701610ee1565b601f01601f19169190910160400192915050565b7f4e487b7100000000000000000000000000000000000000000000000000000000600052601160045260246000fd5b808202811582820484141761030a5761030a610fb9565b8082018082111561030a5761030a610fb9565b7f4e487b7100000000000000000000000000000000000000000000000000000000600052603260045260246000fd5b60008161105057611050610fb9565b50600019019056fea2646970667358221220841b13cc90657c22b57ec99c499af2eacbc6f17f44e006c48c58fa1cc5fc775f64736f6c63430008110033",
  "immutableReferences": {
    "10": [
      {
        "length": 32,
        "start": 795
      },
      {
        "length": 32,
        "start": 886
      }
    ]
  },
  "source": "// SPDX-License-Identifier: MIT\r\n// An example of a consumer contract that relies on a subscription for funding.\r\npragma solidity ^0.8.7;\r\n\r\nimport '@chainlink/contracts/src/v0.8/interfaces/VRFCoordinatorV2Interface.sol';\r\nimport '@chainlink/contracts/src/v0.8/VRFConsumerBaseV2.sol';\r\nimport '@openzeppelin/contracts/access/AccessControl.sol';\r\n\r\n/**\r\n * Request testnet LINK and ETH here: https://faucets.chain.link/\r\n * Find information on LINK Token Contracts and get the latest ETH and LINK faucets here: https://docs.chain.link/docs/link-token-contracts/\r\n */\r\n\r\n/**\r\n * THIS IS AN EXAMPLE CONTRACT THAT USES HARDCODED VALUES FOR CLARITY.\r\n * THIS IS AN EXAMPLE CONTRACT THAT USES UN-AUDITED CODE.\r\n * DO NOT USE THIS CODE IN PRODUCTION.\r\n */\r\n\r\ncontract LTSConsumer is VRFConsumerBaseV2, AccessControl {\r\n    event RequestSent(uint256 requestId, uint32 numWords);\r\n    event RequestFulfilled(uint256 requestId, uint256[] randomWords);\r\n\r\n    struct RequestStatus {\r\n        bool fulfilled; // whether the request has been successfully fulfilled\r\n        bool exists; // whether a requestId exists\r\n        uint256[] randomWords;\r\n    }\r\n    mapping(uint256 => RequestStatus) public s_requests; /* requestId --> requestStatus */\r\n    VRFCoordinatorV2Interface COORDINATOR;\r\n\r\n    // Your subscription ID.\r\n    uint64 s_subscriptionId;\r\n\r\n    // past requests Id.\r\n    uint256[] public requestIds;\r\n    uint256 public lastRequestId;\r\n\r\n    // The gas lane to use, which specifies the maximum gas price to bump to.\r\n    // For a list of available gas lanes on each network,\r\n    // see https://docs.chain.link/docs/vrf/v2/subscription/supported-networks/#configurations\r\n    bytes32 keyHash = 0x79d3d8832d904592c0bf9818b621522c988bb8b0c05cdc3b15aea1b6e8db0c15;\r\n\r\n    // Depends on the number of requested values that you want sent to the\r\n    // fulfillRandomWords() function. Storing each word costs about 20,000 gas,\r\n    // so 100,000 is a safe default for this example contract. Test and adjust\r\n    // this limit based on the network that you select, the size of the request,\r\n    // and the processing of the callback request in the fulfillRandomWords()\r\n    // function.\r\n    uint32 callbackGasLimit = 100000;\r\n\r\n    // The default is 3, but you can set this higher.\r\n    uint16 requestConfirmations = 3;\r\n\r\n    // For this example, retrieve 2 random values in one request.\r\n    // Cannot exceed VRFCoordinatorV2.MAX_NUM_WORDS.\r\n    uint32 numWords = 1;\r\n\r\n    bytes32 public constant REQUEST_RANDOM = keccak256(\"REQUEST_RANDOM\");\r\n\r\n    /**\r\n     * HARDCODED FOR GOERLI\r\n     * COORDINATOR: 0x2Ca8E0C643bDe4C2E08ab1fA0da3401AdAD7734D\r\n     */\r\n    constructor(uint64 subscriptionId)\r\n        VRFConsumerBaseV2(0x2Ca8E0C643bDe4C2E08ab1fA0da3401AdAD7734D)\r\n    {\r\n        _grantRole(DEFAULT_ADMIN_ROLE, msg.sender);\r\n        _grantRole(REQUEST_RANDOM, msg.sender);\r\n        COORDINATOR = VRFCoordinatorV2Interface(0x2Ca8E0C643bDe4C2E08ab1fA0da3401AdAD7734D);\r\n        s_subscriptionId = subscriptionId;\r\n    }\r\n\r\n    // Assumes the subscription is funded sufficiently.\r\n    function requestRandomWords() external onlyRole(REQUEST_RANDOM) returns (uint256 requestId) {\r\n        // Will revert if subscription is not set and funded.\r\n        requestId = COORDINATOR.requestRandomWords(\r\n            keyHash,\r\n            s_subscriptionId,\r\n            requestConfirmations,\r\n            callbackGasLimit,\r\n            numWords\r\n        );\r\n        s_requests[requestId] = RequestStatus({randomWords: new uint256[](0), exists: true, fulfilled: false});\r\n        requestIds.push(requestId);\r\n        lastRequestId = requestId;\r\n        emit RequestSent(requestId, numWords);\r\n        return requestId;\r\n    }\r\n\r\n    function fulfillRandomWords(uint256 _requestId, uint256[] memory _randomWords) internal override {\r\n        require(s_requests[_requestId].exists, 'request not found');\r\n        s_requests[_requestId].fulfilled = true;\r\n        s_requests[_requestId].randomWords = _randomWords;\r\n        emit RequestFulfilled(_requestId, _randomWords);\r\n    }\r\n\r\n    function getRequestStatus(uint256 _requestId) external view returns (bool fulfilled, uint256[] memory randomWords) {\r\n        require(s_requests[_requestId].exists, 'request not found');\r\n        RequestStatus memory request = s_requests[_requestId];\r\n        return (request.fulfilled, request.randomWords);\r\n    }\r\n}\r\n",
  "sourcePath": "C:\\lucas_blockchain\\Projetos\\lts-chain\\truffle\\contracts\\LTSConsumer.sol",
  "compiler": {
    "name": "solc",
    "version": "0.8.17+commit.8df45f5f.Emscripten.clang"
  },
  "schemaVersion": "3.4.10",
  "updatedAt": "2022-11-05T15:39:13.369Z",
  "networkType": "ethereum",
  "devdoc": {
    "kind": "dev",
    "methods": {
      "getRoleAdmin(bytes32)": {
        "details": "Returns the admin role that controls `role`. See {grantRole} and {revokeRole}. To change a role's admin, use {_setRoleAdmin}."
      },
      "grantRole(bytes32,address)": {
        "details": "Grants `role` to `account`. If `account` had not been already granted `role`, emits a {RoleGranted} event. Requirements: - the caller must have ``role``'s admin role. May emit a {RoleGranted} event."
      },
      "hasRole(bytes32,address)": {
        "details": "Returns `true` if `account` has been granted `role`."
      },
      "renounceRole(bytes32,address)": {
        "details": "Revokes `role` from the calling account. Roles are often managed via {grantRole} and {revokeRole}: this function's purpose is to provide a mechanism for accounts to lose their privileges if they are compromised (such as when a trusted device is misplaced). If the calling account had been revoked `role`, emits a {RoleRevoked} event. Requirements: - the caller must be `account`. May emit a {RoleRevoked} event."
      },
      "revokeRole(bytes32,address)": {
        "details": "Revokes `role` from `account`. If `account` had been granted `role`, emits a {RoleRevoked} event. Requirements: - the caller must have ``role``'s admin role. May emit a {RoleRevoked} event."
      },
      "supportsInterface(bytes4)": {
        "details": "See {IERC165-supportsInterface}."
      }
    },
    "version": 1
  },
  "userdoc": {
    "kind": "user",
    "methods": {
      "constructor": {
        "notice": "HARDCODED FOR GOERLI COORDINATOR: 0x2Ca8E0C643bDe4C2E08ab1fA0da3401AdAD7734D"
      }
    },
    "notice": "THIS IS AN EXAMPLE CONTRACT THAT USES HARDCODED VALUES FOR CLARITY. THIS IS AN EXAMPLE CONTRACT THAT USES UN-AUDITED CODE. DO NOT USE THIS CODE IN PRODUCTION.",
    "version": 1
  }
}