{
  "contractName": "LTSLottery",
  "abi": [
    {
      "inputs": [
        {
          "internalType": "address",
          "name": "_consumer",
          "type": "address"
        },
        {
          "internalType": "string",
          "name": "_name",
          "type": "string"
        },
        {
          "internalType": "uint256",
          "name": "_ticketPrice",
          "type": "uint256"
        },
        {
          "internalType": "uint32",
          "name": "_minTicket",
          "type": "uint32"
        },
        {
          "internalType": "address",
          "name": "_receiver",
          "type": "address"
        }
      ],
      "stateMutability": "nonpayable",
      "type": "constructor"
    },
    {
      "anonymous": false,
      "inputs": [
        {
          "indexed": true,
          "internalType": "address",
          "name": "previousOwner",
          "type": "address"
        },
        {
          "indexed": true,
          "internalType": "address",
          "name": "newOwner",
          "type": "address"
        }
      ],
      "name": "OwnershipTransferred",
      "type": "event"
    },
    {
      "inputs": [],
      "name": "owner",
      "outputs": [
        {
          "internalType": "address",
          "name": "",
          "type": "address"
        }
      ],
      "stateMutability": "view",
      "type": "function"
    },
    {
      "inputs": [],
      "name": "renounceOwnership",
      "outputs": [],
      "stateMutability": "nonpayable",
      "type": "function"
    },
    {
      "inputs": [
        {
          "internalType": "address",
          "name": "newOwner",
          "type": "address"
        }
      ],
      "name": "transferOwnership",
      "outputs": [],
      "stateMutability": "nonpayable",
      "type": "function"
    },
    {
      "inputs": [],
      "name": "buyTicket",
      "outputs": [],
      "stateMutability": "payable",
      "type": "function"
    },
    {
      "inputs": [],
      "name": "finalizeLottery",
      "outputs": [],
      "stateMutability": "nonpayable",
      "type": "function"
    },
    {
      "inputs": [
        {
          "internalType": "uint256",
          "name": "_index",
          "type": "uint256"
        }
      ],
      "name": "setChainLinkID",
      "outputs": [],
      "stateMutability": "nonpayable",
      "type": "function"
    },
    {
      "inputs": [],
      "name": "setUpWinner",
      "outputs": [],
      "stateMutability": "nonpayable",
      "type": "function"
    },
    {
      "inputs": [],
      "name": "claim",
      "outputs": [],
      "stateMutability": "nonpayable",
      "type": "function"
    },
    {
      "inputs": [],
      "name": "verifyFinalizeLottery",
      "outputs": [
        {
          "internalType": "bool",
          "name": "",
          "type": "bool"
        },
        {
          "internalType": "uint256[]",
          "name": "",
          "type": "uint256[]"
        }
      ],
      "stateMutability": "view",
      "type": "function"
    },
    {
      "inputs": [],
      "name": "getLotteryProperties",
      "outputs": [
        {
          "internalType": "string",
          "name": "name",
          "type": "string"
        },
        {
          "internalType": "uint256",
          "name": "ticketPrice",
          "type": "uint256"
        },
        {
          "internalType": "uint32",
          "name": "minTicket",
          "type": "uint32"
        },
        {
          "internalType": "uint256",
          "name": "balance",
          "type": "uint256"
        },
        {
          "internalType": "bool",
          "name": "finalized",
          "type": "bool"
        },
        {
          "internalType": "address",
          "name": "winner",
          "type": "address"
        },
        {
          "internalType": "bool",
          "name": "claimed",
          "type": "bool"
        },
        {
          "internalType": "uint256",
          "name": "indexChainLink",
          "type": "uint256"
        }
      ],
      "stateMutability": "view",
      "type": "function"
    }
  ],
  "bytecode": "0x60806040523480156200001157600080fd5b50604051620014c7380380620014c7833981016040819052620000349162000195565b6200005a6200004b640100000000620000e0810204565b640100000000620000e4810204565b60018054600160a060020a03808816600160a060020a0319928316179092556002805492841692909116919091179055600362000098858262000353565b50506004919091556005805463ffffffff191663ffffffff90921691909117905550506000600955600a805460ff19169055600c8054600160a060020a031916905562000425565b3390565b60008054600160a060020a03838116600160a060020a0319831681178455604051919092169283917f8be0079c531659141344cd1fd0a4f28419497f9722a3daafe3b4186f6b6457e09190a35050565b8051600160a060020a03811681146200014c57600080fd5b919050565b7f4e487b7100000000000000000000000000000000000000000000000000000000600052604160045260246000fd5b805163ffffffff811681146200014c57600080fd5b600080600080600060a08688031215620001ae57600080fd5b620001b98662000134565b94506020808701516001604060020a0380821115620001d757600080fd5b818901915089601f830112620001ec57600080fd5b81518181111562000201576200020162000151565b604051601f8201601f19908116603f011681019083821181831017156200022c576200022c62000151565b816040528281528c868487010111156200024557600080fd5b600093505b828410156200026957848401860151818501870152928501926200024a565b6000868483010152809950505050505050604086015192506200028f6060870162000180565b91506200029f6080870162000134565b90509295509295909350565b600281046001821680620002c057607f821691505b602082108103620002fa577f4e487b7100000000000000000000000000000000000000000000000000000000600052602260045260246000fd5b50919050565b601f8211156200034e576000818152602081206020601f86010481016020861015620003295750805b6020601f860104820191505b818110156200034a5782815560010162000335565b5050505b505050565b81516001604060020a038111156200036f576200036f62000151565b6200038781620003808454620002ab565b8462000300565b602080601f831160018114620003c35760008415620003a65750858301515b60028086026008870290910a60001904198216178655506200034a565b600085815260208120601f198616915b82811015620003f457888601518255948401946001909101908401620003d3565b50858210156200041557878501516008601f88160260020a60001904191681555b5050505050600202600101905550565b61109280620004356000396000f3fe6080604052600436106100ae576000357c0100000000000000000000000000000000000000000000000000000000900480638da5cb5b116100765780638da5cb5b14610135578063a4d68db01461015d578063c256e1c814610186578063edca914c146101a6578063f2fde38b146101ae57600080fd5b806315434fdb146100b3578063259e4037146100ca578063456c2892146100f65780634e71d92d1461010b578063715018a614610120575b600080fd5b3480156100bf57600080fd5b506100c86101ce565b005b3480156100d657600080fd5b506100df610300565b6040516100ed929190610d1e565b60405180910390f35b34801561010257600080fd5b506100c86103a7565b34801561011757600080fd5b506100c861049e565b34801561012c57600080fd5b506100c86108ac565b34801561014157600080fd5b50600054604051600160a060020a0390911681526020016100ed565b34801561016957600080fd5b506101726108c0565b6040516100ed989796959493929190610d6e565b34801561019257600080fd5b506100c86101a1366004610e15565b6109c6565b6100c86109d3565b3480156101ba57600080fd5b506100c86101c9366004610e2e565b610bd1565b6101d6610c64565b600a5460009060609060ff166101eb57600080fd5b600154600b546040517fd8a4676f000000000000000000000000000000000000000000000000000000008152600160a060020a039092169163d8a4676f916102399160040190815260200190565b600060405180830381865afa158015610256573d6000803e3d6000fd5b505050506040513d6000823e601f3d908101601f1916820160405261027e9190810190610e77565b90925090508161028d57600080fd5b60036004016000600360050154836000815181106102ad576102ad610f50565b60200260200101516102bf9190610f82565b8152602081019190915260400160002054600c805473ffffffffffffffffffffffffffffffffffffffff1916600160a060020a039092169190911790555050565b600154600b546040517fd8a4676f00000000000000000000000000000000000000000000000000000000815260009260609284928492600160a060020a03169163d8a4676f91610357919060040190815260200190565b600060405180830381865afa158015610374573d6000803e3d6000fd5b505050506040513d6000823e601f3d908101601f1916820160405261039c9190810190610e77565b909590945092505050565b6103af610c64565b600a5460ff161561040a5760405160e560020a62461bcd02815260206004820152601a60248201527f4c6f747465727920616c72656164792066696e616c697a65642e00000000000060448201526064015b60405180910390fd5b60055460085463ffffffff909116111561048f5760405160e560020a62461bcd02815260206004820152602f60248201527f546865204c6f7474657279206469646e742067657420746865206d696e696d7560448201527f6d207265717569726564207965742e00000000000000000000000000000000006064820152608401610401565b600a805460ff19166001179055565b600c5474010000000000000000000000000000000000000000900460ff16156105325760405160e560020a62461bcd02815260206004820152602560248201527f5468652077696e6e657220616c726561647920636c61696d656420686973207060448201527f72697a652e0000000000000000000000000000000000000000000000000000006064820152608401610401565b600a5460ff166105ad5760405160e560020a62461bcd02815260206004820152602160248201527f54686973206c6f74746572792069736e27742066696e616c697a65642079657460448201527f2e000000000000000000000000000000000000000000000000000000000000006064820152608401610401565b600c54600160a060020a03166000036106305760405160e560020a62461bcd028152602060048201526024808201527f54686973206c6f7474657279206469646e742067657420612077696e6e65722060448201527f7965742e000000000000000000000000000000000000000000000000000000006064820152608401610401565b3360009081526006602052604090205460ff166106b85760405160e560020a62461bcd02815260206004820152602760248201527f596f7520646f6e74206861766520616e79207469636b657420746f20636c616960448201527f6d20686572652e000000000000000000000000000000000000000000000000006064820152608401610401565b33600090815260066020526040902054610100900460ff16156107465760405160e560020a62461bcd02815260206004820152602360248201527f596f75206861766520616c7265616420636c61696d656420796f75722070726960448201527f7a652e00000000000000000000000000000000000000000000000000000000006064820152608401610401565b336000818152600660205260409020805461ffff1916610100179055600c54600160a060020a0316146107be5760405160e560020a62461bcd02815260206004820152601c60248201527f596f75277265206e6f74207468652077696e6e65722c20736f727279000000006044820152606401610401565b600c805474ff000000000000000000000000000000000000000019167401000000000000000000000000000000000000000017905560095460009061080590600a90610faf565b610810906007610fc3565b90506000600a6003600601546108269190610faf565b610831906007610fc3565b60095461083e9190610fe0565b600254604051919250600160a060020a03169082156108fc029083906000818181858888f19350505050158015610879573d6000803e3d6000fd5b50604051339083156108fc029084906000818181858888f193505050501580156108a7573d6000803e3d6000fd5b505050565b6108b4610c64565b6108be6000610cc1565b565b600454600554600954600a54600c54600b546003805460609760009788978897889788978897889790969563ffffffff16949360ff90811693600160a060020a038116937401000000000000000000000000000000000000000090910490911691889061092c90610ff3565b80601f016020809104026020016040519081016040528092919081815260200182805461095890610ff3565b80156109a55780601f1061097a576101008083540402835291602001916109a5565b820191906000526020600020905b81548152906001019060200180831161098857829003601f168201915b50505050509750975097509750975097509750975097509091929394959697565b6109ce610c64565b600b55565b600a5460ff1615610a4f5760405160e560020a62461bcd02815260206004820152603560248201527f54686973206c6f74746572792068617320616c72656164792066696e616c697a60448201527f65642c207761697420666f7220726573756c74732100000000000000000000006064820152608401610401565b6004543414610ac95760405160e560020a62461bcd02815260206004820152602960248201527f596f75206e65656420746f20706179207468652065786163746c79207469636b60448201527f65742070726963652e00000000000000000000000000000000000000000000006064820152608401610401565b3360009081526006602052604090205460ff1615610b525760405160e560020a62461bcd02815260206004820152602260248201527f54686973206164647265737320616c7265616479206275792061207469636b6560448201527f742e0000000000000000000000000000000000000000000000000000000000006064820152608401610401565b336000818152600660205260408120805461ffff19166001179055600880546007929182610b7f83611030565b91905055815260200190815260200160002060006101000a815481600160a060020a030219169083600160a060020a031602179055503460036006016000828254610bca9190611049565b9091555050565b610bd9610c64565b600160a060020a038116610c585760405160e560020a62461bcd02815260206004820152602660248201527f4f776e61626c653a206e6577206f776e657220697320746865207a65726f206160448201527f64647265737300000000000000000000000000000000000000000000000000006064820152608401610401565b610c6181610cc1565b50565b600054600160a060020a031633146108be5760405160e560020a62461bcd02815260206004820181905260248201527f4f776e61626c653a2063616c6c6572206973206e6f7420746865206f776e65726044820152606401610401565b60008054600160a060020a0383811673ffffffffffffffffffffffffffffffffffffffff19831681178455604051919092169283917f8be0079c531659141344cd1fd0a4f28419497f9722a3daafe3b4186f6b6457e09190a35050565b60006040820184151583526020604081850152818551808452606086019150828701935060005b81811015610d6157845183529383019391830191600101610d45565b5090979650505050505050565b60006101008083528a518082850152600091505b80821015610da4576020828d0101516101208386010152602082019150610d82565b6101209150600082828601015281601f19601f83011685010192505050886020830152610dd9604083018963ffffffff169052565b866060830152610ded608083018715159052565b600160a060020a039490941660a082015291151560c083015260e09091015295945050505050565b600060208284031215610e2757600080fd5b5035919050565b600060208284031215610e4057600080fd5b8135600160a060020a0381168114610e5757600080fd5b9392505050565b60e060020a634e487b7102600052604160045260246000fd5b60008060408385031215610e8a57600080fd5b82518015158114610e9a57600080fd5b8092505060208084015167ffffffffffffffff80821115610eba57600080fd5b818601915086601f830112610ece57600080fd5b815181811115610ee057610ee0610e5e565b838102604051601f19603f83011681018181108582111715610f0457610f04610e5e565b604052918252848201925083810185019189831115610f2257600080fd5b938501935b82851015610f4057845184529385019392850192610f27565b8096505050505050509250929050565b60e060020a634e487b7102600052603260045260246000fd5b60e060020a634e487b7102600052601260045260246000fd5b600082610f9157610f91610f69565b500690565b60e060020a634e487b7102600052601160045260246000fd5b600082610fbe57610fbe610f69565b500490565b8082028115828204841417610fda57610fda610f96565b92915050565b81810381811115610fda57610fda610f96565b60028104600182168061100757607f821691505b60208210810361102a5760e060020a634e487b7102600052602260045260246000fd5b50919050565b60006001820161104257611042610f96565b5060010190565b80820180821115610fda57610fda610f9656fea26469706673582212203b3ad550656d994af320195a9facaef4773bdba9d9cab7d4fdffc54cfcb479fd64736f6c63430008110033",
  "immutableReferences": {},
  "source": "// SPDX-License-Identifier: MIT\r\npragma solidity ^0.8.17;\r\n\r\nimport \"@openzeppelin/contracts/access/Ownable.sol\";\r\n\r\ninterface VRFv2ConsumerChainLink {\r\n    function getRequestStatus(uint256 _requestId)\r\n        external\r\n        view\r\n        returns (bool fulfilled, uint256[] memory randomWords);\r\n}\r\n\r\ncontract LTSLottery is Ownable {\r\n    VRFv2ConsumerChainLink private chainLinkConsumer;\r\n    address receiver;\r\n\r\n    struct User {\r\n        bool hasTicket;\r\n        bool claimed;\r\n    }\r\n    struct LotteryStruct {\r\n        string name;\r\n        uint256 ticketPrice;\r\n        uint32 minTicket;\r\n        mapping(address => User) ticketOwners;\r\n        mapping(uint256 => address) tickets;\r\n        uint256 ticketsCount;\r\n        uint256 balance;\r\n        bool finalized;\r\n        uint256 indexChainLink;\r\n        address winner;\r\n        bool claimed;\r\n    }\r\n\r\n    LotteryStruct lottery;\r\n\r\n    constructor(\r\n        address _consumer,\r\n        string memory _name,\r\n        uint256 _ticketPrice,\r\n        uint32 _minTicket,\r\n        address _receiver\r\n    ) {\r\n        chainLinkConsumer = VRFv2ConsumerChainLink(_consumer);\r\n        receiver = _receiver;\r\n\r\n        lottery.name = _name;\r\n        lottery.ticketPrice = _ticketPrice;\r\n        lottery.minTicket = _minTicket;\r\n\r\n        lottery.balance = 0;\r\n        lottery.finalized = false;\r\n        lottery.winner = 0x0000000000000000000000000000000000000000;\r\n    }\r\n\r\n    function buyTicket() public payable {\r\n        require(\r\n            !lottery.finalized,\r\n            \"This lottery has already finalized, wait for results!\"\r\n        );\r\n        require(\r\n            lottery.ticketPrice == msg.value,\r\n            \"You need to pay the exactly ticket price.\"\r\n        );\r\n        require(\r\n            !lottery.ticketOwners[msg.sender].hasTicket,\r\n            \"This address already buy a ticket.\"\r\n        );\r\n\r\n        // Input the sender to Ticket Owners\r\n        lottery.ticketOwners[msg.sender].hasTicket = true;\r\n        lottery.ticketOwners[msg.sender].claimed = false;\r\n\r\n        // Input sender to ticket numbers\r\n        lottery.tickets[lottery.ticketsCount++] = msg.sender;\r\n\r\n        // Input de balance plus msg.value\r\n        lottery.balance += msg.value;\r\n    }\r\n\r\n    function finalizeLottery() public onlyOwner {\r\n        require(!lottery.finalized, \"Lottery already finalized.\");\r\n        require(\r\n            lottery.ticketsCount >= lottery.minTicket,\r\n            \"The Lottery didnt get the minimum required yet.\"\r\n        );\r\n        lottery.finalized = true;\r\n        // requestRandomWord();\r\n    }\r\n\r\n    function setChainLinkID(uint256 _index) public onlyOwner {\r\n        lottery.indexChainLink = _index;\r\n    }\r\n\r\n    function setUpWinner() public onlyOwner {\r\n        bool fulfilled;\r\n        uint256[] memory randomWords;\r\n\r\n        require(lottery.finalized);\r\n        (fulfilled, randomWords) = chainLinkConsumer.getRequestStatus(\r\n            lottery.indexChainLink\r\n        );\r\n        require(fulfilled);\r\n        lottery.winner = lottery.tickets[randomWords[0] % lottery.ticketsCount];\r\n    }\r\n\r\n    function claim() public {\r\n        require(!lottery.claimed, \"The winner already claimed his prize.\");\r\n        require(lottery.finalized, \"This lottery isn't finalized yet.\");\r\n        require(\r\n            lottery.winner != 0x0000000000000000000000000000000000000000,\r\n            \"This lottery didnt get a winner yet.\"\r\n        );\r\n        require(\r\n            lottery.ticketOwners[msg.sender].hasTicket,\r\n            \"You dont have any ticket to claim here.\"\r\n        );\r\n        require(\r\n            !lottery.ticketOwners[msg.sender].claimed,\r\n            \"You have alread claimed your prize.\"\r\n        );\r\n        lottery.ticketOwners[msg.sender].claimed = true;\r\n        lottery.ticketOwners[msg.sender].hasTicket = false;\r\n        require(lottery.winner == msg.sender, \"You're not the winner, sorry\");\r\n        lottery.claimed = true;\r\n        uint256 _prize = (lottery.balance / 10) * 7;\r\n        uint256 _onwerValue = lottery.balance - ((lottery.balance / 10) * 7);\r\n        payable(receiver).transfer(_onwerValue);\r\n        payable(msg.sender).transfer(_prize);\r\n    }\r\n\r\n    function verifyFinalizeLottery()\r\n        public\r\n        view\r\n        returns (bool, uint256[] memory)\r\n    {\r\n        bool fulfilled;\r\n        uint256[] memory randomWords;\r\n        (fulfilled, randomWords) = chainLinkConsumer.getRequestStatus(\r\n            lottery.indexChainLink\r\n        );\r\n\r\n        return (fulfilled, randomWords);\r\n    }\r\n\r\n    function getLotteryProperties()\r\n        public\r\n        view\r\n        returns (\r\n            string memory name,\r\n            uint256 ticketPrice,\r\n            uint32 minTicket,\r\n            uint256 balance,\r\n            bool finalized,\r\n            address winner,\r\n            bool claimed,\r\n            uint256 indexChainLink\r\n\r\n        )\r\n    {\r\n        return (\r\n            lottery.name,\r\n            lottery.ticketPrice,\r\n            lottery.minTicket,\r\n            lottery.balance,\r\n            lottery.finalized,\r\n            lottery.winner,\r\n            lottery.claimed,\r\n            lottery.indexChainLink\r\n        );\r\n    }\r\n}\r\n",
  "sourcePath": "C:\\lucas_blockchain\\Projetos\\lts-chain\\truffle\\contracts\\LTSLottery.sol",
  "compiler": {
    "name": "solc",
    "version": "0.8.17+commit.8df45f5f.Emscripten.clang"
  },
  "schemaVersion": "3.4.10",
  "updatedAt": "2022-11-05T15:35:00.886Z",
  "devdoc": {
    "kind": "dev",
    "methods": {
      "owner()": {
        "details": "Returns the address of the current owner."
      },
      "renounceOwnership()": {
        "details": "Leaves the contract without owner. It will not be possible to call `onlyOwner` functions anymore. Can only be called by the current owner. NOTE: Renouncing ownership will leave the contract without an owner, thereby removing any functionality that is only available to the owner."
      },
      "transferOwnership(address)": {
        "details": "Transfers ownership of the contract to a new account (`newOwner`). Can only be called by the current owner."
      }
    },
    "version": 1
  },
  "userdoc": {
    "kind": "user",
    "methods": {},
    "version": 1
  }
}