{
  "contractName": "LTSLotteries",
  "abi": [
    {
      "inputs": [
        {
          "internalType": "address",
          "name": "_chainLinkConsumer",
          "type": "address"
        }
      ],
      "stateMutability": "nonpayable",
      "type": "constructor"
    },
    {
      "anonymous": false,
      "inputs": [
        {
          "indexed": true,
          "internalType": "address",
          "name": "previousOwner",
          "type": "address"
        },
        {
          "indexed": true,
          "internalType": "address",
          "name": "newOwner",
          "type": "address"
        }
      ],
      "name": "OwnershipTransferred",
      "type": "event"
    },
    {
      "inputs": [],
      "name": "owner",
      "outputs": [
        {
          "internalType": "address",
          "name": "",
          "type": "address"
        }
      ],
      "stateMutability": "view",
      "type": "function",
      "constant": true
    },
    {
      "inputs": [],
      "name": "renounceOwnership",
      "outputs": [],
      "stateMutability": "nonpayable",
      "type": "function"
    },
    {
      "inputs": [
        {
          "internalType": "address",
          "name": "newOwner",
          "type": "address"
        }
      ],
      "name": "transferOwnership",
      "outputs": [],
      "stateMutability": "nonpayable",
      "type": "function"
    },
    {
      "inputs": [
        {
          "internalType": "string",
          "name": "_name",
          "type": "string"
        },
        {
          "internalType": "uint256",
          "name": "_ticketPrice",
          "type": "uint256"
        },
        {
          "internalType": "uint32",
          "name": "_minTicket",
          "type": "uint32"
        }
      ],
      "name": "newLottery",
      "outputs": [],
      "stateMutability": "nonpayable",
      "type": "function"
    },
    {
      "inputs": [
        {
          "internalType": "uint64",
          "name": "_index",
          "type": "uint64"
        }
      ],
      "name": "finalizeLottery",
      "outputs": [],
      "stateMutability": "nonpayable",
      "type": "function"
    },
    {
      "inputs": [
        {
          "internalType": "uint64",
          "name": "_index",
          "type": "uint64"
        }
      ],
      "name": "setUpWinner",
      "outputs": [],
      "stateMutability": "nonpayable",
      "type": "function"
    },
    {
      "inputs": [
        {
          "internalType": "uint64",
          "name": "_index",
          "type": "uint64"
        }
      ],
      "name": "verifyFinalizeLottery",
      "outputs": [
        {
          "internalType": "bool",
          "name": "",
          "type": "bool"
        },
        {
          "internalType": "uint256[]",
          "name": "",
          "type": "uint256[]"
        }
      ],
      "stateMutability": "view",
      "type": "function",
      "constant": true
    },
    {
      "inputs": [],
      "name": "returnLotteries",
      "outputs": [
        {
          "internalType": "address[]",
          "name": "",
          "type": "address[]"
        }
      ],
      "stateMutability": "view",
      "type": "function",
      "constant": true
    }
  ],
  "bytecode": "0x608060405234801561001057600080fd5b5060405161218b38038061218b83398101604081905261002f916100ee565b61005161004364010000000061009a810204565b64010000000061009e810204565b60028054600160a060020a0390921668010000000000000000027fffffffff0000000000000000000000000000000000000000ffffffffffffffff90921691909117905561011e565b3390565b60008054600160a060020a03838116600160a060020a0319831681178455604051919092169283917f8be0079c531659141344cd1fd0a4f28419497f9722a3daafe3b4186f6b6457e09190a35050565b60006020828403121561010057600080fd5b8151600160a060020a038116811461011757600080fd5b9392505050565b61205e8061012d6000396000f3fe60806040523480156200001157600080fd5b5060043610620000b0576000357c0100000000000000000000000000000000000000000000000000000000900480638da5cb5b116200007f5780638da5cb5b146200011f5780638eb21d22146200013b578063aec725ff1462000152578063f2fde38b146200016b57600080fd5b806353b202d714620000b55780636d3d794f14620000ce578063715018a614620000e55780638bfc602914620000ef575b600080fd5b620000cc620000c636600462000806565b62000182565b005b620000cc620000df366004620008c0565b62000246565b620000cc62000407565b6200010662000100366004620008c0565b6200041f565b60405162000116929190620008f3565b60405180910390f35b600054604051600160a060020a03909116815260200162000116565b620000cc6200014c366004620008c0565b620004e2565b6200015c62000590565b60405162000116919062000945565b620000cc6200017c36600462000994565b620005f4565b6200018c620006a8565b6000600260089054906101000a9004600160a060020a031684848433604051620001b6906200077b565b620001c6959493929190620009bf565b604051809103906000f080158015620001e3573d6000803e3d6000fd5b506001805480820182556000919091527fb10e2d527612073b26eecdfd717e6a320cf44b4afac2b0732d9fcbe2b7fa0cf601805473ffffffffffffffffffffffffffffffffffffffff1916600160a060020a039290921691909117905550505050565b62000250620006a8565b600060018267ffffffffffffffff168154811062000272576200027262000a4b565b6000918252602082200154604080517f456c28920000000000000000000000000000000000000000000000000000000081529051600160a060020a039092169350839263456c28929260048084019382900301818387803b158015620002d757600080fd5b505af1158015620002ec573d6000803e3d6000fd5b505050506000600260089054906101000a9004600160a060020a0316600160a060020a031663e0c862896040518163ffffffff167c01000000000000000000000000000000000000000000000000000000000281526004016020604051808303816000875af115801562000364573d6000803e3d6000fd5b505050506040513d601f19601f820116820180604052508101906200038a919062000a7a565b6040517fc256e1c800000000000000000000000000000000000000000000000000000000815260048101829052909150600160a060020a0383169063c256e1c890602401600060405180830381600087803b158015620003e957600080fd5b505af1158015620003fe573d6000803e3d6000fd5b50505050505050565b62000411620006a8565b6200041d60006200071e565b565b60006060600060018467ffffffffffffffff168154811062000445576200044562000a4b565b6000918252602082200154604080517f259e40370000000000000000000000000000000000000000000000000000000081529051600160a060020a039092169350839263259e4037926004808401938290030181865afa158015620004ae573d6000803e3d6000fd5b505050506040513d6000823e601f3d908101601f19168201604052620004d8919081019062000a94565b9250925050915091565b620004ec620006a8565b600060018267ffffffffffffffff16815481106200050e576200050e62000a4b565b6000918252602082200154604080517f15434fdb0000000000000000000000000000000000000000000000000000000081529051600160a060020a03909216935083926315434fdb9260048084019382900301818387803b1580156200057357600080fd5b505af115801562000588573d6000803e3d6000fd5b505050505050565b60606001805480602002602001604051908101604052809291908181526020018280548015620005ea57602002820191906000526020600020905b8154600160a060020a03168152600190910190602001808311620005cb575b5050505050905090565b620005fe620006a8565b600160a060020a0381166200069a576040517f08c379a000000000000000000000000000000000000000000000000000000000815260206004820152602660248201527f4f776e61626c653a206e6577206f776e657220697320746865207a65726f206160448201527f646472657373000000000000000000000000000000000000000000000000000060648201526084015b60405180910390fd5b620006a5816200071e565b50565b600054600160a060020a031633146200041d576040517f08c379a000000000000000000000000000000000000000000000000000000000815260206004820181905260248201527f4f776e61626c653a2063616c6c6572206973206e6f7420746865206f776e6572604482015260640162000691565b60008054600160a060020a0383811673ffffffffffffffffffffffffffffffffffffffff19831681178455604051919092169283917f8be0079c531659141344cd1fd0a4f28419497f9722a3daafe3b4186f6b6457e09190a35050565b6114c78062000b6283390190565b7f4e487b7100000000000000000000000000000000000000000000000000000000600052604160045260246000fd5b604051601f8201601f1916810167ffffffffffffffff81118282101715620007e457620007e462000789565b604052919050565b803563ffffffff811681146200080157600080fd5b919050565b6000806000606084860312156200081c57600080fd5b833567ffffffffffffffff808211156200083557600080fd5b818601915086601f8301126200084a57600080fd5b813560208282111562000861576200086162000789565b62000875601f8301601f19168201620007b8565b925081835288818386010111156200088c57600080fd5b8181850182850137600081838501015282965080880135955050505050620008b760408501620007ec565b90509250925092565b600060208284031215620008d357600080fd5b813567ffffffffffffffff81168114620008ec57600080fd5b9392505050565b60006040820184151583526020604081850152818551808452606086019150828701935060005b8181101562000938578451835293830193918301916001016200091a565b5090979650505050505050565b6020808252825182820181905260009190848201906040850190845b8181101562000988578351600160a060020a03168352928401929184019160010162000961565b50909695505050505050565b600060208284031215620009a757600080fd5b8135600160a060020a0381168114620008ec57600080fd5b600160a060020a03861681526000602060a08184015286518060a085015260005b81811015620009fe5788810183015185820160c001528201620009e0565b50600060c0828601015260c0601f19601f8301168501019250505084604083015262000a32606083018563ffffffff169052565b600160a060020a03831660808301529695505050505050565b7f4e487b7100000000000000000000000000000000000000000000000000000000600052603260045260246000fd5b60006020828403121562000a8d57600080fd5b5051919050565b6000806040838503121562000aa857600080fd5b8251801515811462000ab957600080fd5b8092505060208084015167ffffffffffffffff8082111562000ada57600080fd5b818601915086601f83011262000aef57600080fd5b81518181111562000b045762000b0462000789565b838102915062000b16848301620007b8565b818152918301840191848101908984111562000b3157600080fd5b938501935b8385101562000b515784518252938501939085019062000b36565b809650505050505050925092905056fe60806040523480156200001157600080fd5b50604051620014c7380380620014c7833981016040819052620000349162000195565b6200005a6200004b640100000000620000e0810204565b640100000000620000e4810204565b60018054600160a060020a03808816600160a060020a0319928316179092556002805492841692909116919091179055600362000098858262000353565b50506004919091556005805463ffffffff191663ffffffff90921691909117905550506000600955600a805460ff19169055600c8054600160a060020a031916905562000425565b3390565b60008054600160a060020a03838116600160a060020a0319831681178455604051919092169283917f8be0079c531659141344cd1fd0a4f28419497f9722a3daafe3b4186f6b6457e09190a35050565b8051600160a060020a03811681146200014c57600080fd5b919050565b7f4e487b7100000000000000000000000000000000000000000000000000000000600052604160045260246000fd5b805163ffffffff811681146200014c57600080fd5b600080600080600060a08688031215620001ae57600080fd5b620001b98662000134565b94506020808701516001604060020a0380821115620001d757600080fd5b818901915089601f830112620001ec57600080fd5b81518181111562000201576200020162000151565b604051601f8201601f19908116603f011681019083821181831017156200022c576200022c62000151565b816040528281528c868487010111156200024557600080fd5b600093505b828410156200026957848401860151818501870152928501926200024a565b6000868483010152809950505050505050604086015192506200028f6060870162000180565b91506200029f6080870162000134565b90509295509295909350565b600281046001821680620002c057607f821691505b602082108103620002fa577f4e487b7100000000000000000000000000000000000000000000000000000000600052602260045260246000fd5b50919050565b601f8211156200034e576000818152602081206020601f86010481016020861015620003295750805b6020601f860104820191505b818110156200034a5782815560010162000335565b5050505b505050565b81516001604060020a038111156200036f576200036f62000151565b6200038781620003808454620002ab565b8462000300565b602080601f831160018114620003c35760008415620003a65750858301515b60028086026008870290910a60001904198216178655506200034a565b600085815260208120601f198616915b82811015620003f457888601518255948401946001909101908401620003d3565b50858210156200041557878501516008601f88160260020a60001904191681555b5050505050600202600101905550565b61109280620004356000396000f3fe6080604052600436106100ae576000357c0100000000000000000000000000000000000000000000000000000000900480638da5cb5b116100765780638da5cb5b14610135578063a4d68db01461015d578063c256e1c814610186578063edca914c146101a6578063f2fde38b146101ae57600080fd5b806315434fdb146100b3578063259e4037146100ca578063456c2892146100f65780634e71d92d1461010b578063715018a614610120575b600080fd5b3480156100bf57600080fd5b506100c86101ce565b005b3480156100d657600080fd5b506100df610300565b6040516100ed929190610d1e565b60405180910390f35b34801561010257600080fd5b506100c86103a7565b34801561011757600080fd5b506100c861049e565b34801561012c57600080fd5b506100c86108ac565b34801561014157600080fd5b50600054604051600160a060020a0390911681526020016100ed565b34801561016957600080fd5b506101726108c0565b6040516100ed989796959493929190610d6e565b34801561019257600080fd5b506100c86101a1366004610e15565b6109c6565b6100c86109d3565b3480156101ba57600080fd5b506100c86101c9366004610e2e565b610bd1565b6101d6610c64565b600a5460009060609060ff166101eb57600080fd5b600154600b546040517fd8a4676f000000000000000000000000000000000000000000000000000000008152600160a060020a039092169163d8a4676f916102399160040190815260200190565b600060405180830381865afa158015610256573d6000803e3d6000fd5b505050506040513d6000823e601f3d908101601f1916820160405261027e9190810190610e77565b90925090508161028d57600080fd5b60036004016000600360050154836000815181106102ad576102ad610f50565b60200260200101516102bf9190610f82565b8152602081019190915260400160002054600c805473ffffffffffffffffffffffffffffffffffffffff1916600160a060020a039092169190911790555050565b600154600b546040517fd8a4676f00000000000000000000000000000000000000000000000000000000815260009260609284928492600160a060020a03169163d8a4676f91610357919060040190815260200190565b600060405180830381865afa158015610374573d6000803e3d6000fd5b505050506040513d6000823e601f3d908101601f1916820160405261039c9190810190610e77565b909590945092505050565b6103af610c64565b600a5460ff161561040a5760405160e560020a62461bcd02815260206004820152601a60248201527f4c6f747465727920616c72656164792066696e616c697a65642e00000000000060448201526064015b60405180910390fd5b60055460085463ffffffff909116111561048f5760405160e560020a62461bcd02815260206004820152602f60248201527f546865204c6f7474657279206469646e742067657420746865206d696e696d7560448201527f6d207265717569726564207965742e00000000000000000000000000000000006064820152608401610401565b600a805460ff19166001179055565b600c5474010000000000000000000000000000000000000000900460ff16156105325760405160e560020a62461bcd02815260206004820152602560248201527f5468652077696e6e657220616c726561647920636c61696d656420686973207060448201527f72697a652e0000000000000000000000000000000000000000000000000000006064820152608401610401565b600a5460ff166105ad5760405160e560020a62461bcd02815260206004820152602160248201527f54686973206c6f74746572792069736e27742066696e616c697a65642079657460448201527f2e000000000000000000000000000000000000000000000000000000000000006064820152608401610401565b600c54600160a060020a03166000036106305760405160e560020a62461bcd028152602060048201526024808201527f54686973206c6f7474657279206469646e742067657420612077696e6e65722060448201527f7965742e000000000000000000000000000000000000000000000000000000006064820152608401610401565b3360009081526006602052604090205460ff166106b85760405160e560020a62461bcd02815260206004820152602760248201527f596f7520646f6e74206861766520616e79207469636b657420746f20636c616960448201527f6d20686572652e000000000000000000000000000000000000000000000000006064820152608401610401565b33600090815260066020526040902054610100900460ff16156107465760405160e560020a62461bcd02815260206004820152602360248201527f596f75206861766520616c7265616420636c61696d656420796f75722070726960448201527f7a652e00000000000000000000000000000000000000000000000000000000006064820152608401610401565b336000818152600660205260409020805461ffff1916610100179055600c54600160a060020a0316146107be5760405160e560020a62461bcd02815260206004820152601c60248201527f596f75277265206e6f74207468652077696e6e65722c20736f727279000000006044820152606401610401565b600c805474ff000000000000000000000000000000000000000019167401000000000000000000000000000000000000000017905560095460009061080590600a90610faf565b610810906007610fc3565b90506000600a6003600601546108269190610faf565b610831906007610fc3565b60095461083e9190610fe0565b600254604051919250600160a060020a03169082156108fc029083906000818181858888f19350505050158015610879573d6000803e3d6000fd5b50604051339083156108fc029084906000818181858888f193505050501580156108a7573d6000803e3d6000fd5b505050565b6108b4610c64565b6108be6000610cc1565b565b600454600554600954600a54600c54600b546003805460609760009788978897889788978897889790969563ffffffff16949360ff90811693600160a060020a038116937401000000000000000000000000000000000000000090910490911691889061092c90610ff3565b80601f016020809104026020016040519081016040528092919081815260200182805461095890610ff3565b80156109a55780601f1061097a576101008083540402835291602001916109a5565b820191906000526020600020905b81548152906001019060200180831161098857829003601f168201915b50505050509750975097509750975097509750975097509091929394959697565b6109ce610c64565b600b55565b600a5460ff1615610a4f5760405160e560020a62461bcd02815260206004820152603560248201527f54686973206c6f74746572792068617320616c72656164792066696e616c697a60448201527f65642c207761697420666f7220726573756c74732100000000000000000000006064820152608401610401565b6004543414610ac95760405160e560020a62461bcd02815260206004820152602960248201527f596f75206e65656420746f20706179207468652065786163746c79207469636b60448201527f65742070726963652e00000000000000000000000000000000000000000000006064820152608401610401565b3360009081526006602052604090205460ff1615610b525760405160e560020a62461bcd02815260206004820152602260248201527f54686973206164647265737320616c7265616479206275792061207469636b6560448201527f742e0000000000000000000000000000000000000000000000000000000000006064820152608401610401565b336000818152600660205260408120805461ffff19166001179055600880546007929182610b7f83611030565b91905055815260200190815260200160002060006101000a815481600160a060020a030219169083600160a060020a031602179055503460036006016000828254610bca9190611049565b9091555050565b610bd9610c64565b600160a060020a038116610c585760405160e560020a62461bcd02815260206004820152602660248201527f4f776e61626c653a206e6577206f776e657220697320746865207a65726f206160448201527f64647265737300000000000000000000000000000000000000000000000000006064820152608401610401565b610c6181610cc1565b50565b600054600160a060020a031633146108be5760405160e560020a62461bcd02815260206004820181905260248201527f4f776e61626c653a2063616c6c6572206973206e6f7420746865206f776e65726044820152606401610401565b60008054600160a060020a0383811673ffffffffffffffffffffffffffffffffffffffff19831681178455604051919092169283917f8be0079c531659141344cd1fd0a4f28419497f9722a3daafe3b4186f6b6457e09190a35050565b60006040820184151583526020604081850152818551808452606086019150828701935060005b81811015610d6157845183529383019391830191600101610d45565b5090979650505050505050565b60006101008083528a518082850152600091505b80821015610da4576020828d0101516101208386010152602082019150610d82565b6101209150600082828601015281601f19601f83011685010192505050886020830152610dd9604083018963ffffffff169052565b866060830152610ded608083018715159052565b600160a060020a039490941660a082015291151560c083015260e09091015295945050505050565b600060208284031215610e2757600080fd5b5035919050565b600060208284031215610e4057600080fd5b8135600160a060020a0381168114610e5757600080fd5b9392505050565b60e060020a634e487b7102600052604160045260246000fd5b60008060408385031215610e8a57600080fd5b82518015158114610e9a57600080fd5b8092505060208084015167ffffffffffffffff80821115610eba57600080fd5b818601915086601f830112610ece57600080fd5b815181811115610ee057610ee0610e5e565b838102604051601f19603f83011681018181108582111715610f0457610f04610e5e565b604052918252848201925083810185019189831115610f2257600080fd5b938501935b82851015610f4057845184529385019392850192610f27565b8096505050505050509250929050565b60e060020a634e487b7102600052603260045260246000fd5b60e060020a634e487b7102600052601260045260246000fd5b600082610f9157610f91610f69565b500690565b60e060020a634e487b7102600052601160045260246000fd5b600082610fbe57610fbe610f69565b500490565b8082028115828204841417610fda57610fda610f96565b92915050565b81810381811115610fda57610fda610f96565b60028104600182168061100757607f821691505b60208210810361102a5760e060020a634e487b7102600052602260045260246000fd5b50919050565b60006001820161104257611042610f96565b5060010190565b80820180821115610fda57610fda610f9656fea26469706673582212203b3ad550656d994af320195a9facaef4773bdba9d9cab7d4fdffc54cfcb479fd64736f6c63430008110033a2646970667358221220b6cabbfdb2503dd52743102cec851c19eeeb8d3359db590ca24f02a9889438f064736f6c63430008110033",
  "immutableReferences": {},
  "source": "// SPDX-License-Identifier: MIT\r\npragma solidity ^0.8.17;\r\n\r\nimport \"@openzeppelin/contracts/access/Ownable.sol\";\r\nimport \"./LTSLottery.sol\";\r\n\r\ninterface ILTSLottery {\r\n    function finalizeLottery() external;\r\n\r\n    function setChainLinkID(uint256 _index) external;\r\n\r\n    function setUpWinner() external;\r\n\r\n    function verifyFinalizeLottery()\r\n        external\r\n        view\r\n        returns (bool, uint256[] memory);\r\n}\r\n\r\ninterface ILTSConsumer {\r\n    function requestRandomWords() external returns (uint256 requestId);\r\n\r\n    function getRequestStatus(uint256 _requestId)\r\n        external\r\n        view\r\n        returns (bool fulfilled, uint256[] memory randomWords);\r\n}\r\n\r\ncontract LTSLotteries is Ownable {\r\n    address[] lotteries;\r\n    uint64 lotteriesCount;\r\n    address private chainLinkConsumer;\r\n\r\n    constructor(address _chainLinkConsumer) {\r\n        chainLinkConsumer = _chainLinkConsumer;\r\n    }\r\n\r\n    function newLottery(\r\n        string memory _name,\r\n        uint256 _ticketPrice,\r\n        uint32 _minTicket\r\n    ) public onlyOwner {\r\n        address _newLotteryAddress = address(\r\n            new LTSLottery(\r\n                chainLinkConsumer,\r\n                _name,\r\n                _ticketPrice,\r\n                _minTicket,\r\n                msg.sender\r\n            )\r\n        );\r\n        lotteries.push(_newLotteryAddress);\r\n    }\r\n\r\n    function finalizeLottery(uint64 _index) public onlyOwner {\r\n        ILTSLottery lottery = ILTSLottery(lotteries[_index]);\r\n        lottery.finalizeLottery();\r\n        uint256 _chainLinkIndex = ILTSConsumer(chainLinkConsumer)\r\n            .requestRandomWords();\r\n        lottery.setChainLinkID(_chainLinkIndex);\r\n    }\r\n\r\n    function setUpWinner(uint64 _index) public onlyOwner {\r\n        ILTSLottery lottery = ILTSLottery(lotteries[_index]);\r\n        lottery.setUpWinner();\r\n    }\r\n\r\n    function verifyFinalizeLottery(uint64 _index)\r\n        public\r\n        view\r\n        returns (bool, uint256[] memory)\r\n    {\r\n        ILTSLottery lottery = ILTSLottery(lotteries[_index]);\r\n        return lottery.verifyFinalizeLottery();\r\n    }\r\n\r\n    function returnLotteries() public view returns (address[] memory) {\r\n        return lotteries;\r\n    }\r\n}\r\n",
  "sourcePath": "C:\\lucas_blockchain\\Projetos\\lts-chain\\truffle\\contracts\\LTSLotteries.sol",
  "compiler": {
    "name": "solc",
    "version": "0.8.17+commit.8df45f5f.Emscripten.clang"
  },
  "schemaVersion": "3.4.10",
  "updatedAt": "2022-11-05T15:39:13.375Z",
  "networkType": "ethereum",
  "devdoc": {
    "kind": "dev",
    "methods": {
      "owner()": {
        "details": "Returns the address of the current owner."
      },
      "renounceOwnership()": {
        "details": "Leaves the contract without owner. It will not be possible to call `onlyOwner` functions anymore. Can only be called by the current owner. NOTE: Renouncing ownership will leave the contract without an owner, thereby removing any functionality that is only available to the owner."
      },
      "transferOwnership(address)": {
        "details": "Transfers ownership of the contract to a new account (`newOwner`). Can only be called by the current owner."
      }
    },
    "version": 1
  },
  "userdoc": {
    "kind": "user",
    "methods": {},
    "version": 1
  }
}