{
  "contractName": "LTSTicket",
  "abi": [
    {
      "inputs": [],
      "stateMutability": "nonpayable",
      "type": "constructor"
    },
    {
      "anonymous": false,
      "inputs": [
        {
          "indexed": true,
          "internalType": "address",
          "name": "owner",
          "type": "address"
        },
        {
          "indexed": true,
          "internalType": "address",
          "name": "approved",
          "type": "address"
        },
        {
          "indexed": true,
          "internalType": "uint256",
          "name": "tokenId",
          "type": "uint256"
        }
      ],
      "name": "Approval",
      "type": "event"
    },
    {
      "anonymous": false,
      "inputs": [
        {
          "indexed": true,
          "internalType": "address",
          "name": "owner",
          "type": "address"
        },
        {
          "indexed": true,
          "internalType": "address",
          "name": "operator",
          "type": "address"
        },
        {
          "indexed": false,
          "internalType": "bool",
          "name": "approved",
          "type": "bool"
        }
      ],
      "name": "ApprovalForAll",
      "type": "event"
    },
    {
      "anonymous": false,
      "inputs": [
        {
          "indexed": true,
          "internalType": "bytes32",
          "name": "role",
          "type": "bytes32"
        },
        {
          "indexed": true,
          "internalType": "bytes32",
          "name": "previousAdminRole",
          "type": "bytes32"
        },
        {
          "indexed": true,
          "internalType": "bytes32",
          "name": "newAdminRole",
          "type": "bytes32"
        }
      ],
      "name": "RoleAdminChanged",
      "type": "event"
    },
    {
      "anonymous": false,
      "inputs": [
        {
          "indexed": true,
          "internalType": "bytes32",
          "name": "role",
          "type": "bytes32"
        },
        {
          "indexed": true,
          "internalType": "address",
          "name": "account",
          "type": "address"
        },
        {
          "indexed": true,
          "internalType": "address",
          "name": "sender",
          "type": "address"
        }
      ],
      "name": "RoleGranted",
      "type": "event"
    },
    {
      "anonymous": false,
      "inputs": [
        {
          "indexed": true,
          "internalType": "bytes32",
          "name": "role",
          "type": "bytes32"
        },
        {
          "indexed": true,
          "internalType": "address",
          "name": "account",
          "type": "address"
        },
        {
          "indexed": true,
          "internalType": "address",
          "name": "sender",
          "type": "address"
        }
      ],
      "name": "RoleRevoked",
      "type": "event"
    },
    {
      "anonymous": false,
      "inputs": [
        {
          "indexed": true,
          "internalType": "address",
          "name": "from",
          "type": "address"
        },
        {
          "indexed": true,
          "internalType": "address",
          "name": "to",
          "type": "address"
        },
        {
          "indexed": true,
          "internalType": "uint256",
          "name": "tokenId",
          "type": "uint256"
        }
      ],
      "name": "Transfer",
      "type": "event"
    },
    {
      "inputs": [],
      "name": "DEFAULT_ADMIN_ROLE",
      "outputs": [
        {
          "internalType": "bytes32",
          "name": "",
          "type": "bytes32"
        }
      ],
      "stateMutability": "view",
      "type": "function",
      "constant": true
    },
    {
      "inputs": [],
      "name": "MINTER_ROLE",
      "outputs": [
        {
          "internalType": "bytes32",
          "name": "",
          "type": "bytes32"
        }
      ],
      "stateMutability": "view",
      "type": "function",
      "constant": true
    },
    {
      "inputs": [
        {
          "internalType": "address",
          "name": "to",
          "type": "address"
        },
        {
          "internalType": "uint256",
          "name": "tokenId",
          "type": "uint256"
        }
      ],
      "name": "approve",
      "outputs": [],
      "stateMutability": "nonpayable",
      "type": "function"
    },
    {
      "inputs": [
        {
          "internalType": "address",
          "name": "owner",
          "type": "address"
        }
      ],
      "name": "balanceOf",
      "outputs": [
        {
          "internalType": "uint256",
          "name": "",
          "type": "uint256"
        }
      ],
      "stateMutability": "view",
      "type": "function",
      "constant": true
    },
    {
      "inputs": [
        {
          "internalType": "uint256",
          "name": "tokenId",
          "type": "uint256"
        }
      ],
      "name": "burn",
      "outputs": [],
      "stateMutability": "nonpayable",
      "type": "function"
    },
    {
      "inputs": [
        {
          "internalType": "uint256",
          "name": "tokenId",
          "type": "uint256"
        }
      ],
      "name": "getApproved",
      "outputs": [
        {
          "internalType": "address",
          "name": "",
          "type": "address"
        }
      ],
      "stateMutability": "view",
      "type": "function",
      "constant": true
    },
    {
      "inputs": [
        {
          "internalType": "bytes32",
          "name": "role",
          "type": "bytes32"
        }
      ],
      "name": "getRoleAdmin",
      "outputs": [
        {
          "internalType": "bytes32",
          "name": "",
          "type": "bytes32"
        }
      ],
      "stateMutability": "view",
      "type": "function",
      "constant": true
    },
    {
      "inputs": [
        {
          "internalType": "bytes32",
          "name": "role",
          "type": "bytes32"
        },
        {
          "internalType": "address",
          "name": "account",
          "type": "address"
        }
      ],
      "name": "grantRole",
      "outputs": [],
      "stateMutability": "nonpayable",
      "type": "function"
    },
    {
      "inputs": [
        {
          "internalType": "bytes32",
          "name": "role",
          "type": "bytes32"
        },
        {
          "internalType": "address",
          "name": "account",
          "type": "address"
        }
      ],
      "name": "hasRole",
      "outputs": [
        {
          "internalType": "bool",
          "name": "",
          "type": "bool"
        }
      ],
      "stateMutability": "view",
      "type": "function",
      "constant": true
    },
    {
      "inputs": [
        {
          "internalType": "address",
          "name": "owner",
          "type": "address"
        },
        {
          "internalType": "address",
          "name": "operator",
          "type": "address"
        }
      ],
      "name": "isApprovedForAll",
      "outputs": [
        {
          "internalType": "bool",
          "name": "",
          "type": "bool"
        }
      ],
      "stateMutability": "view",
      "type": "function",
      "constant": true
    },
    {
      "inputs": [],
      "name": "name",
      "outputs": [
        {
          "internalType": "string",
          "name": "",
          "type": "string"
        }
      ],
      "stateMutability": "view",
      "type": "function",
      "constant": true
    },
    {
      "inputs": [
        {
          "internalType": "uint256",
          "name": "tokenId",
          "type": "uint256"
        }
      ],
      "name": "ownerOf",
      "outputs": [
        {
          "internalType": "address",
          "name": "",
          "type": "address"
        }
      ],
      "stateMutability": "view",
      "type": "function",
      "constant": true
    },
    {
      "inputs": [
        {
          "internalType": "bytes32",
          "name": "role",
          "type": "bytes32"
        },
        {
          "internalType": "address",
          "name": "account",
          "type": "address"
        }
      ],
      "name": "renounceRole",
      "outputs": [],
      "stateMutability": "nonpayable",
      "type": "function"
    },
    {
      "inputs": [
        {
          "internalType": "bytes32",
          "name": "role",
          "type": "bytes32"
        },
        {
          "internalType": "address",
          "name": "account",
          "type": "address"
        }
      ],
      "name": "revokeRole",
      "outputs": [],
      "stateMutability": "nonpayable",
      "type": "function"
    },
    {
      "inputs": [
        {
          "internalType": "address",
          "name": "from",
          "type": "address"
        },
        {
          "internalType": "address",
          "name": "to",
          "type": "address"
        },
        {
          "internalType": "uint256",
          "name": "tokenId",
          "type": "uint256"
        }
      ],
      "name": "safeTransferFrom",
      "outputs": [],
      "stateMutability": "nonpayable",
      "type": "function"
    },
    {
      "inputs": [
        {
          "internalType": "address",
          "name": "from",
          "type": "address"
        },
        {
          "internalType": "address",
          "name": "to",
          "type": "address"
        },
        {
          "internalType": "uint256",
          "name": "tokenId",
          "type": "uint256"
        },
        {
          "internalType": "bytes",
          "name": "data",
          "type": "bytes"
        }
      ],
      "name": "safeTransferFrom",
      "outputs": [],
      "stateMutability": "nonpayable",
      "type": "function"
    },
    {
      "inputs": [
        {
          "internalType": "address",
          "name": "operator",
          "type": "address"
        },
        {
          "internalType": "bool",
          "name": "approved",
          "type": "bool"
        }
      ],
      "name": "setApprovalForAll",
      "outputs": [],
      "stateMutability": "nonpayable",
      "type": "function"
    },
    {
      "inputs": [],
      "name": "symbol",
      "outputs": [
        {
          "internalType": "string",
          "name": "",
          "type": "string"
        }
      ],
      "stateMutability": "view",
      "type": "function",
      "constant": true
    },
    {
      "inputs": [
        {
          "internalType": "address",
          "name": "from",
          "type": "address"
        },
        {
          "internalType": "address",
          "name": "to",
          "type": "address"
        },
        {
          "internalType": "uint256",
          "name": "tokenId",
          "type": "uint256"
        }
      ],
      "name": "transferFrom",
      "outputs": [],
      "stateMutability": "nonpayable",
      "type": "function"
    },
    {
      "inputs": [
        {
          "internalType": "address",
          "name": "to",
          "type": "address"
        },
        {
          "internalType": "string",
          "name": "uri",
          "type": "string"
        }
      ],
      "name": "safeMint",
      "outputs": [],
      "stateMutability": "nonpayable",
      "type": "function"
    },
    {
      "inputs": [
        {
          "internalType": "uint256",
          "name": "tokenId",
          "type": "uint256"
        }
      ],
      "name": "tokenURI",
      "outputs": [
        {
          "internalType": "string",
          "name": "",
          "type": "string"
        }
      ],
      "stateMutability": "view",
      "type": "function",
      "constant": true
    },
    {
      "inputs": [
        {
          "internalType": "bytes4",
          "name": "interfaceId",
          "type": "bytes4"
        }
      ],
      "name": "supportsInterface",
      "outputs": [
        {
          "internalType": "bool",
          "name": "",
          "type": "bool"
        }
      ],
      "stateMutability": "view",
      "type": "function",
      "constant": true
    }
  ],
  "bytecode": "0x60806040523480156200001157600080fd5b506040518060400160405280600981526020017f4c54535469636b657400000000000000000000000000000000000000000000008152506040518060400160405280600381526020017f544943000000000000000000000000000000000000000000000000000000000081525081600090816200008f919062000299565b5060016200009e828262000299565b50620000b991506000905033640100000000620000f4810204565b620000ee7f9f2df0fed2c77648de5860a4cc508cd0818c85b8b8a1ab4ceeef8d981c8956a633640100000000620000f4810204565b6200036c565b62000109828264010000000062000193810204565b6200018f576000828152600760209081526040808320600160a060020a03851684529091529020805460ff191660011790556200014e640100000000620001be810204565b600160a060020a031681600160a060020a0316837f2f8788117e7eff1d82e926ec794901d17c78024a50270940304540a733656f0d60405160405180910390a45b5050565b6000918252600760209081526040808420600160a060020a0393909316845291905290205460ff1690565b3390565b7f4e487b7100000000000000000000000000000000000000000000000000000000600052604160045260246000fd5b6002810460018216806200020657607f821691505b60208210810362000240577f4e487b7100000000000000000000000000000000000000000000000000000000600052602260045260246000fd5b50919050565b601f82111562000294576000818152602081206020601f860104810160208610156200026f5750805b6020601f860104820191505b8181101562000290578281556001016200027b565b5050505b505050565b815167ffffffffffffffff811115620002b657620002b6620001c2565b620002ce81620002c78454620001f1565b8462000246565b602080601f8311600181146200030a5760008415620002ed5750858301515b60028086026008870290910a600019041982161786555062000290565b600085815260208120601f198616915b828110156200033b578886015182559484019460019091019084016200031a565b50858210156200035c57878501516008601f88160260020a60001904191681555b5050505050600202600101905550565b612062806200037c6000396000f3fe608060405234801561001057600080fd5b506004361061015f576000357c01000000000000000000000000000000000000000000000000000000009004806370a08231116100d5578063b88d4fde11610099578063b88d4fde146102cd578063c87b56dd146102e0578063d204c45e146102f3578063d539139314610306578063d547741f1461032d578063e985e9c51461034057600080fd5b806370a082311461028457806391d148541461029757806395d89b41146102aa578063a217fddf146102b2578063a22cb465146102ba57600080fd5b8063248a9ca311610127578063248a9ca3146101f45780632f2ff15d1461022557806336568abe1461023857806342842e0e1461024b57806342966c681461025e5780636352211e1461027157600080fd5b806301ffc9a71461016457806306fdde031461018c578063081812fc146101a1578063095ea7b3146101cc57806323b872dd146101e1575b600080fd5b6101776101723660046118dc565b61037c565b60405190151581526020015b60405180910390f35b61019461038d565b6040516101839190611949565b6101b46101af36600461195c565b61041f565b604051600160a060020a039091168152602001610183565b6101df6101da366004611991565b610446565b005b6101df6101ef3660046119bb565b610582565b61021761020236600461195c565b60009081526007602052604090206001015490565b604051908152602001610183565b6101df6102333660046119f7565b6105b7565b6101df6102463660046119f7565b6105dc565b6101df6102593660046119bb565b61066b565b6101df61026c36600461195c565b610686565b6101b461027f36600461195c565b6106ba565b610217610292366004611a23565b610722565b6101776102a53660046119f7565b6107bf565b6101946107ea565b610217600081565b6101df6102c8366004611a3e565b6107f9565b6101df6102db366004611b09565b610804565b6101946102ee36600461195c565b61083f565b6101df610301366004611b85565b61084a565b6102177f9f2df0fed2c77648de5860a4cc508cd0818c85b8b8a1ab4ceeef8d981c8956a681565b6101df61033b3660046119f7565b6108a3565b61017761034e366004611be7565b600160a060020a03918216600090815260056020908152604080832093909416825291909152205460ff1690565b6000610387826108c8565b92915050565b60606000805461039c90611c11565b80601f01602080910402602001604051908101604052809291908181526020018280546103c890611c11565b80156104155780601f106103ea57610100808354040283529160200191610415565b820191906000526020600020905b8154815290600101906020018083116103f857829003601f168201915b5050505050905090565b600061042a82610906565b50600090815260046020526040902054600160a060020a031690565b6000610451826106ba565b905080600160a060020a031683600160a060020a0316036104e25760405160e560020a62461bcd02815260206004820152602160248201527f4552433732313a20617070726f76616c20746f2063757272656e74206f776e6560448201527f720000000000000000000000000000000000000000000000000000000000000060648201526084015b60405180910390fd5b33600160a060020a03821614806104fe57506104fe813361034e565b6105735760405160e560020a62461bcd02815260206004820152603e60248201527f4552433732313a20617070726f76652063616c6c6572206973206e6f7420746f60448201527f6b656e206f776e6572206e6f7220617070726f76656420666f7220616c6c000060648201526084016104d9565b61057d838361096d565b505050565b61058d335b826109e8565b6105ac5760405160e560020a62461bcd0281526004016104d990611c4e565b61057d838383610a67565b6000828152600760205260409020600101546105d281610c47565b61057d8383610c51565b600160a060020a038116331461065d5760405160e560020a62461bcd02815260206004820152602f60248201527f416363657373436f6e74726f6c3a2063616e206f6e6c792072656e6f756e636560448201527f20726f6c657320666f722073656c66000000000000000000000000000000000060648201526084016104d9565b6106678282610cd7565b5050565b61057d83838360405180602001604052806000815250610804565b61068f33610587565b6106ae5760405160e560020a62461bcd0281526004016104d990611c4e565b6106b781610d3e565b50565b600081815260026020526040812054600160a060020a0316806103875760405160e560020a62461bcd02815260206004820152601860248201527f4552433732313a20696e76616c696420746f6b656e204944000000000000000060448201526064016104d9565b6000600160a060020a0382166107a35760405160e560020a62461bcd02815260206004820152602960248201527f4552433732313a2061646472657373207a65726f206973206e6f74206120766160448201527f6c6964206f776e6572000000000000000000000000000000000000000000000060648201526084016104d9565b50600160a060020a031660009081526003602052604090205490565b6000918252600760209081526040808420600160a060020a0393909316845291905290205460ff1690565b60606001805461039c90611c11565b610667338383610d47565b61080e33836109e8565b61082d5760405160e560020a62461bcd0281526004016104d990611c4e565b61083984848484610e18565b50505050565b606061038782610e4e565b7f9f2df0fed2c77648de5860a4cc508cd0818c85b8b8a1ab4ceeef8d981c8956a661087481610c47565b600061087f60085490565b905061088f600880546001019055565b6108998482610f49565b6108398184610f63565b6000828152600760205260409020600101546108be81610c47565b61057d8383610cd7565b6000600160e060020a031982167f7965db0b000000000000000000000000000000000000000000000000000000001480610387575061038782611008565b600081815260026020526040902054600160a060020a03166106b75760405160e560020a62461bcd02815260206004820152601860248201527f4552433732313a20696e76616c696420746f6b656e204944000000000000000060448201526064016104d9565b6000818152600460205260409020805473ffffffffffffffffffffffffffffffffffffffff1916600160a060020a03841690811790915581906109af826106ba565b600160a060020a03167f8c5be1e5ebec7d5bd14f71427d1e84f3dd0314c0f7b2291e5b200ac8c7c3b92560405160405180910390a45050565b6000806109f4836106ba565b905080600160a060020a031684600160a060020a03161480610a3b5750600160a060020a0380821660009081526005602090815260408083209388168352929052205460ff165b80610a5f575083600160a060020a0316610a548461041f565b600160a060020a0316145b949350505050565b82600160a060020a0316610a7a826106ba565b600160a060020a031614610af95760405160e560020a62461bcd02815260206004820152602560248201527f4552433732313a207472616e736665722066726f6d20696e636f72726563742060448201527f6f776e657200000000000000000000000000000000000000000000000000000060648201526084016104d9565b600160a060020a038216610b775760405160e560020a62461bcd028152602060048201526024808201527f4552433732313a207472616e7366657220746f20746865207a65726f2061646460448201527f726573730000000000000000000000000000000000000000000000000000000060648201526084016104d9565b610b8260008261096d565b600160a060020a0383166000908152600360205260408120805460019290610bab908490611cc4565b9091555050600160a060020a0382166000908152600360205260408120805460019290610bd9908490611cd7565b9091555050600081815260026020526040808220805473ffffffffffffffffffffffffffffffffffffffff1916600160a060020a0386811691821790925591518493918716917fddf252ad1be2c89b69c2b068fc378daa952ba7f163c4a11628f55a4df523b3ef91a4505050565b6106b781336110a3565b610c5b82826107bf565b610667576000828152600760209081526040808320600160a060020a03851684529091529020805460ff19166001179055610c933390565b600160a060020a031681600160a060020a0316837f2f8788117e7eff1d82e926ec794901d17c78024a50270940304540a733656f0d60405160405180910390a45050565b610ce182826107bf565b15610667576000828152600760209081526040808320600160a060020a0385168085529252808320805460ff1916905551339285917ff6391f5c32d9c69d2a47ea670b442974b53935d1edc7fd64eb21e047a839171b9190a45050565b6106b78161110a565b81600160a060020a031683600160a060020a031603610dab5760405160e560020a62461bcd02815260206004820152601960248201527f4552433732313a20617070726f766520746f2063616c6c65720000000000000060448201526064016104d9565b600160a060020a03838116600081815260056020908152604080832094871680845294825291829020805460ff191686151590811790915591519182527f17307eab39ab6107e8899845ad3d59bd9653f200f220920489ca2b5937696c31910160405180910390a3505050565b610e23848484610a67565b610e2f8484848461114a565b6108395760405160e560020a62461bcd0281526004016104d990611cea565b6060610e5982610906565b60008281526006602052604081208054610e7290611c11565b80601f0160208091040260200160405190810160405280929190818152602001828054610e9e90611c11565b8015610eeb5780601f10610ec057610100808354040283529160200191610eeb565b820191906000526020600020905b815481529060010190602001808311610ece57829003601f168201915b505050505090506000610efc611280565b90508051600003610f0e575092915050565b815115610f40578082604051602001610f28929190611d47565b60405160208183030381529060405292505050919050565b610a5f846112a0565b610667828260405180602001604052806000815250611307565b600082815260026020526040902054600160a060020a0316610ff05760405160e560020a62461bcd02815260206004820152602e60248201527f45524337323155524953746f726167653a2055524920736574206f66206e6f6e60448201527f6578697374656e7420746f6b656e00000000000000000000000000000000000060648201526084016104d9565b600082815260066020526040902061057d8282611dc4565b6000600160e060020a031982167f80ac58cd00000000000000000000000000000000000000000000000000000000148061106b5750600160e060020a031982167f5b5e139f00000000000000000000000000000000000000000000000000000000145b8061038757507f01ffc9a700000000000000000000000000000000000000000000000000000000600160e060020a0319831614610387565b6110ad82826107bf565b610667576110c581600160a060020a0316601461133d565b6110d083602061133d565b6040516020016110e1929190611e8a565b60408051601f198184030181529082905260e560020a62461bcd0282526104d991600401611949565b6111138161153f565b6000818152600660205260409020805461112c90611c11565b1590506106b75760008181526006602052604081206106b791611878565b6000600160a060020a0384163b15611275576040517f150b7a02000000000000000000000000000000000000000000000000000000008152600160a060020a0385169063150b7a02906111a7903390899088908890600401611f0b565b6020604051808303816000875af19250505080156111e2575060408051601f3d908101601f191682019092526111df91810190611f47565b60015b611242573d808015611210576040519150601f19603f3d011682016040523d82523d6000602084013e611215565b606091505b50805160000361123a5760405160e560020a62461bcd0281526004016104d990611cea565b805181602001fd5b600160e060020a0319167f150b7a0200000000000000000000000000000000000000000000000000000000149050610a5f565b506001949350505050565b606060405180606001604052806027815260200161200660279139905090565b60606112ab82610906565b60006112b5611280565b905060008151116112d55760405180602001604052806000815250611300565b806112df846115e7565b6040516020016112f0929190611d47565b6040516020818303038152906040525b9392505050565b6113118383611723565b61131e600084848461114a565b61057d5760405160e560020a62461bcd0281526004016104d990611cea565b6060600061134c836002611f64565b611357906002611cd7565b67ffffffffffffffff81111561136f5761136f611a7a565b6040519080825280601f01601f191660200182016040528015611399576020820181803683370190505b5090507f3000000000000000000000000000000000000000000000000000000000000000816000815181106113d0576113d0611f7b565b6020010190600160f860020a031916908160001a9053507f78000000000000000000000000000000000000000000000000000000000000008160018151811061141b5761141b611f7b565b6020010190600160f860020a031916908160001a905350600061143f846002611f64565b61144a906001611cd7565b90505b60018111156114ed577f303132333435363738396162636465660000000000000000000000000000000085600f166010811061148b5761148b611f7b565b1a7f0100000000000000000000000000000000000000000000000000000000000000028282815181106114c0576114c0611f7b565b6020010190600160f860020a031916908160001a9053506010909404936114e681611f94565b905061144d565b5083156113005760405160e560020a62461bcd02815260206004820181905260248201527f537472696e67733a20686578206c656e67746820696e73756666696369656e7460448201526064016104d9565b600061154a826106ba565b905061155760008361096d565b600160a060020a0381166000908152600360205260408120805460019290611580908490611cc4565b9091555050600082815260026020526040808220805473ffffffffffffffffffffffffffffffffffffffff1916905551839190600160a060020a038416907fddf252ad1be2c89b69c2b068fc378daa952ba7f163c4a11628f55a4df523b3ef908390a45050565b60608160000361162a57505060408051808201909152600181527f3000000000000000000000000000000000000000000000000000000000000000602082015290565b8160005b8115611654578061163e81611fab565b915061164d9050600a83611fdd565b915061162e565b60008167ffffffffffffffff81111561166f5761166f611a7a565b6040519080825280601f01601f191660200182016040528015611699576020820181803683370190505b5090505b8415610a5f576116ae600183611cc4565b91506116bb600a86611ff1565b6116c6906030611cd7565b7f0100000000000000000000000000000000000000000000000000000000000000028183815181106116fa576116fa611f7b565b6020010190600160f860020a031916908160001a90535061171c600a86611fdd565b945061169d565b600160a060020a03821661177c5760405160e560020a62461bcd02815260206004820181905260248201527f4552433732313a206d696e7420746f20746865207a65726f206164647265737360448201526064016104d9565b600081815260026020526040902054600160a060020a0316156117e45760405160e560020a62461bcd02815260206004820152601c60248201527f4552433732313a20746f6b656e20616c7265616479206d696e7465640000000060448201526064016104d9565b600160a060020a038216600090815260036020526040812080546001929061180d908490611cd7565b9091555050600081815260026020526040808220805473ffffffffffffffffffffffffffffffffffffffff1916600160a060020a03861690811790915590518392907fddf252ad1be2c89b69c2b068fc378daa952ba7f163c4a11628f55a4df523b3ef908290a45050565b50805461188490611c11565b6000825580601f10611894575050565b601f0160209004906000526020600020908101906106b791905b808211156118c257600081556001016118ae565b5090565b600160e060020a0319811681146106b757600080fd5b6000602082840312156118ee57600080fd5b8135611300816118c6565b60005b838110156119145781810151838201526020016118fc565b50506000910152565b600081518084526119358160208601602086016118f9565b601f01601f19169290920160200192915050565b602081526000611300602083018461191d565b60006020828403121561196e57600080fd5b5035919050565b8035600160a060020a038116811461198c57600080fd5b919050565b600080604083850312156119a457600080fd5b6119ad83611975565b946020939093013593505050565b6000806000606084860312156119d057600080fd5b6119d984611975565b92506119e760208501611975565b9150604084013590509250925092565b60008060408385031215611a0a57600080fd5b82359150611a1a60208401611975565b90509250929050565b600060208284031215611a3557600080fd5b61130082611975565b60008060408385031215611a5157600080fd5b611a5a83611975565b915060208301358015158114611a6f57600080fd5b809150509250929050565b60e060020a634e487b7102600052604160045260246000fd5b600067ffffffffffffffff80841115611aae57611aae611a7a565b604051601f8501601f19908116603f01168101908282118183101715611ad657611ad6611a7a565b81604052809350858152868686011115611aef57600080fd5b858560208301376000602087830101525050509392505050565b60008060008060808587031215611b1f57600080fd5b611b2885611975565b9350611b3660208601611975565b925060408501359150606085013567ffffffffffffffff811115611b5957600080fd5b8501601f81018713611b6a57600080fd5b611b7987823560208401611a93565b91505092959194509250565b60008060408385031215611b9857600080fd5b611ba183611975565b9150602083013567ffffffffffffffff811115611bbd57600080fd5b8301601f81018513611bce57600080fd5b611bdd85823560208401611a93565b9150509250929050565b60008060408385031215611bfa57600080fd5b611c0383611975565b9150611a1a60208401611975565b600281046001821680611c2557607f821691505b602082108103611c485760e060020a634e487b7102600052602260045260246000fd5b50919050565b6020808252602e908201527f4552433732313a2063616c6c6572206973206e6f7420746f6b656e206f776e6560408201527f72206e6f7220617070726f766564000000000000000000000000000000000000606082015260800190565b60e060020a634e487b7102600052601160045260246000fd5b8181038181111561038757610387611cab565b8082018082111561038757610387611cab565b60208082526032908201527f4552433732313a207472616e7366657220746f206e6f6e20455243373231526560408201527f63656976657220696d706c656d656e7465720000000000000000000000000000606082015260800190565b60008351611d598184602088016118f9565b835190830190611d6d8183602088016118f9565b01949350505050565b601f82111561057d576000818152602081206020601f86010481016020861015611d9d5750805b6020601f860104820191505b81811015611dbc57828155600101611da9565b505050505050565b815167ffffffffffffffff811115611dde57611dde611a7a565b611df281611dec8454611c11565b84611d76565b602080601f831160018114611e2b5760008415611e0f5750858301515b60028086026008870290910a6000190419821617865550611dbc565b600085815260208120601f198616915b82811015611e5a57888601518255948401946001909101908401611e3b565b5085821015611e7a57878501516008601f88160260020a60001904191681555b5050505050600202600101905550565b7f416363657373436f6e74726f6c3a206163636f756e7420000000000000000000815260008351611ec28160178501602088016118f9565b7f206973206d697373696e6720726f6c65200000000000000000000000000000006017918401918201528351611eff8160288401602088016118f9565b01602801949350505050565b6000600160a060020a03808716835280861660208401525083604083015260806060830152611f3d608083018461191d565b9695505050505050565b600060208284031215611f5957600080fd5b8151611300816118c6565b808202811582820484141761038757610387611cab565b60e060020a634e487b7102600052603260045260246000fd5b600081611fa357611fa3611cab565b506000190190565b600060018201611fbd57611fbd611cab565b5060010190565b60e060020a634e487b7102600052601260045260246000fd5b600082611fec57611fec611fc4565b500490565b60008261200057612000611fc4565b50069056fe68747470733a2f2f74756962696e67746f6b656e2d2d2d7462742e7765622e6170702f6e66742fa2646970667358221220d5f1c854207433d3870d921ec99503007072dc5ae6ce8d5a35ab53323399bbb264736f6c63430008110033",
  "immutableReferences": {},
  "source": "// SPDX-License-Identifier: MIT\npragma solidity ^0.8.4;\n\nimport \"@openzeppelin/contracts/token/ERC721/ERC721.sol\";\nimport \"@openzeppelin/contracts/token/ERC721/extensions/ERC721URIStorage.sol\";\nimport \"@openzeppelin/contracts/token/ERC721/extensions/ERC721Burnable.sol\";\nimport \"@openzeppelin/contracts/access/AccessControl.sol\";\nimport \"@openzeppelin/contracts/utils/Counters.sol\";\n\ncontract LTSTicket is ERC721, ERC721URIStorage, ERC721Burnable, AccessControl {\n    using Counters for Counters.Counter;\n\n    bytes32 public constant MINTER_ROLE = keccak256(\"MINTER_ROLE\");\n    Counters.Counter private _tokenIdCounter;\n\n    constructor() ERC721(\"LTSTicket\", \"TIC\") {\n        _grantRole(DEFAULT_ADMIN_ROLE, msg.sender);\n        _grantRole(MINTER_ROLE, msg.sender);\n    }\n\n    function _baseURI() internal pure override returns (string memory) {\n        return \"https://tuibingtoken---tbt.web.app/nft/\";\n    }\n\n    function safeMint(address to, string memory uri) public onlyRole(MINTER_ROLE) {\n        uint256 tokenId = _tokenIdCounter.current();\n        _tokenIdCounter.increment();\n        _safeMint(to, tokenId);\n        _setTokenURI(tokenId, uri);\n    }\n\n    // The following functions are overrides required by Solidity.\n\n    function _burn(uint256 tokenId) internal override(ERC721, ERC721URIStorage) {\n        super._burn(tokenId);\n    }\n\n    function tokenURI(uint256 tokenId)\n        public\n        view\n        override(ERC721, ERC721URIStorage)\n        returns (string memory)\n    {\n        return super.tokenURI(tokenId);\n    }\n\n    function supportsInterface(bytes4 interfaceId)\n        public\n        view\n        override(ERC721, AccessControl)\n        returns (bool)\n    {\n        return super.supportsInterface(interfaceId);\n    }\n}",
  "sourcePath": "C:\\lucas_blockchain\\Projetos\\lts-chain\\truffle\\contracts\\LTSTicket.sol",
  "compiler": {
    "name": "solc",
    "version": "0.8.17+commit.8df45f5f.Emscripten.clang"
  },
  "schemaVersion": "3.4.10",
  "updatedAt": "2022-11-05T15:37:01.930Z",
  "networkType": "ethereum",
  "devdoc": {
    "kind": "dev",
    "methods": {
      "approve(address,uint256)": {
        "details": "See {IERC721-approve}."
      },
      "balanceOf(address)": {
        "details": "See {IERC721-balanceOf}."
      },
      "burn(uint256)": {
        "details": "Burns `tokenId`. See {ERC721-_burn}. Requirements: - The caller must own `tokenId` or be an approved operator."
      },
      "getApproved(uint256)": {
        "details": "See {IERC721-getApproved}."
      },
      "getRoleAdmin(bytes32)": {
        "details": "Returns the admin role that controls `role`. See {grantRole} and {revokeRole}. To change a role's admin, use {_setRoleAdmin}."
      },
      "grantRole(bytes32,address)": {
        "details": "Grants `role` to `account`. If `account` had not been already granted `role`, emits a {RoleGranted} event. Requirements: - the caller must have ``role``'s admin role. May emit a {RoleGranted} event."
      },
      "hasRole(bytes32,address)": {
        "details": "Returns `true` if `account` has been granted `role`."
      },
      "isApprovedForAll(address,address)": {
        "details": "See {IERC721-isApprovedForAll}."
      },
      "name()": {
        "details": "See {IERC721Metadata-name}."
      },
      "ownerOf(uint256)": {
        "details": "See {IERC721-ownerOf}."
      },
      "renounceRole(bytes32,address)": {
        "details": "Revokes `role` from the calling account. Roles are often managed via {grantRole} and {revokeRole}: this function's purpose is to provide a mechanism for accounts to lose their privileges if they are compromised (such as when a trusted device is misplaced). If the calling account had been revoked `role`, emits a {RoleRevoked} event. Requirements: - the caller must be `account`. May emit a {RoleRevoked} event."
      },
      "revokeRole(bytes32,address)": {
        "details": "Revokes `role` from `account`. If `account` had been granted `role`, emits a {RoleRevoked} event. Requirements: - the caller must have ``role``'s admin role. May emit a {RoleRevoked} event."
      },
      "safeTransferFrom(address,address,uint256)": {
        "details": "See {IERC721-safeTransferFrom}."
      },
      "safeTransferFrom(address,address,uint256,bytes)": {
        "details": "See {IERC721-safeTransferFrom}."
      },
      "setApprovalForAll(address,bool)": {
        "details": "See {IERC721-setApprovalForAll}."
      },
      "symbol()": {
        "details": "See {IERC721Metadata-symbol}."
      },
      "transferFrom(address,address,uint256)": {
        "details": "See {IERC721-transferFrom}."
      }
    },
    "version": 1
  },
  "userdoc": {
    "kind": "user",
    "methods": {},
    "version": 1
  }
}