{
  "contractName": "LTSTicketSeller",
  "abi": [
    {
      "inputs": [
        {
          "internalType": "address",
          "name": "_token",
          "type": "address"
        }
      ],
      "stateMutability": "nonpayable",
      "type": "constructor"
    },
    {
      "anonymous": false,
      "inputs": [
        {
          "indexed": true,
          "internalType": "address",
          "name": "previousOwner",
          "type": "address"
        },
        {
          "indexed": true,
          "internalType": "address",
          "name": "newOwner",
          "type": "address"
        }
      ],
      "name": "OwnershipTransferred",
      "type": "event"
    },
    {
      "inputs": [],
      "name": "nftCommonPrice",
      "outputs": [
        {
          "internalType": "uint256",
          "name": "",
          "type": "uint256"
        }
      ],
      "stateMutability": "view",
      "type": "function",
      "constant": true
    },
    {
      "inputs": [],
      "name": "nftEpicPrice",
      "outputs": [
        {
          "internalType": "uint256",
          "name": "",
          "type": "uint256"
        }
      ],
      "stateMutability": "view",
      "type": "function",
      "constant": true
    },
    {
      "inputs": [],
      "name": "nftRarePrice",
      "outputs": [
        {
          "internalType": "uint256",
          "name": "",
          "type": "uint256"
        }
      ],
      "stateMutability": "view",
      "type": "function",
      "constant": true
    },
    {
      "inputs": [],
      "name": "nftUncommonPrice",
      "outputs": [
        {
          "internalType": "uint256",
          "name": "",
          "type": "uint256"
        }
      ],
      "stateMutability": "view",
      "type": "function",
      "constant": true
    },
    {
      "inputs": [],
      "name": "owner",
      "outputs": [
        {
          "internalType": "address",
          "name": "",
          "type": "address"
        }
      ],
      "stateMutability": "view",
      "type": "function",
      "constant": true
    },
    {
      "inputs": [],
      "name": "renounceOwnership",
      "outputs": [],
      "stateMutability": "nonpayable",
      "type": "function"
    },
    {
      "inputs": [],
      "name": "token",
      "outputs": [
        {
          "internalType": "contract IERC721LTSTicket",
          "name": "",
          "type": "address"
        }
      ],
      "stateMutability": "view",
      "type": "function",
      "constant": true
    },
    {
      "inputs": [
        {
          "internalType": "address",
          "name": "newOwner",
          "type": "address"
        }
      ],
      "name": "transferOwnership",
      "outputs": [],
      "stateMutability": "nonpayable",
      "type": "function"
    },
    {
      "inputs": [],
      "name": "purchasecommon",
      "outputs": [],
      "stateMutability": "payable",
      "type": "function",
      "payable": true
    },
    {
      "inputs": [],
      "name": "purchaseUncommon",
      "outputs": [],
      "stateMutability": "payable",
      "type": "function",
      "payable": true
    },
    {
      "inputs": [],
      "name": "purchaseRare",
      "outputs": [],
      "stateMutability": "payable",
      "type": "function",
      "payable": true
    },
    {
      "inputs": [],
      "name": "purchaseEpic",
      "outputs": [],
      "stateMutability": "payable",
      "type": "function",
      "payable": true
    },
    {
      "inputs": [
        {
          "internalType": "uint256",
          "name": "_price",
          "type": "uint256"
        }
      ],
      "name": "setcommonPrice",
      "outputs": [],
      "stateMutability": "nonpayable",
      "type": "function"
    },
    {
      "inputs": [
        {
          "internalType": "uint256",
          "name": "_price",
          "type": "uint256"
        }
      ],
      "name": "setUncommonPrice",
      "outputs": [],
      "stateMutability": "nonpayable",
      "type": "function"
    },
    {
      "inputs": [
        {
          "internalType": "uint256",
          "name": "_price",
          "type": "uint256"
        }
      ],
      "name": "setRarePrice",
      "outputs": [],
      "stateMutability": "nonpayable",
      "type": "function"
    },
    {
      "inputs": [
        {
          "internalType": "uint256",
          "name": "_price",
          "type": "uint256"
        }
      ],
      "name": "setEpicPrice",
      "outputs": [],
      "stateMutability": "nonpayable",
      "type": "function"
    },
    {
      "inputs": [],
      "name": "getAllPrices",
      "outputs": [
        {
          "internalType": "uint256",
          "name": "",
          "type": "uint256"
        },
        {
          "internalType": "uint256",
          "name": "",
          "type": "uint256"
        },
        {
          "internalType": "uint256",
          "name": "",
          "type": "uint256"
        },
        {
          "internalType": "uint256",
          "name": "",
          "type": "uint256"
        }
      ],
      "stateMutability": "view",
      "type": "function",
      "constant": true
    },
    {
      "inputs": [
        {
          "internalType": "uint256",
          "name": "_price1",
          "type": "uint256"
        },
        {
          "internalType": "uint256",
          "name": "_price2",
          "type": "uint256"
        },
        {
          "internalType": "uint256",
          "name": "_price3",
          "type": "uint256"
        },
        {
          "internalType": "uint256",
          "name": "_price4",
          "type": "uint256"
        }
      ],
      "name": "setAllPrices",
      "outputs": [],
      "stateMutability": "nonpayable",
      "type": "function"
    },
    {
      "inputs": [
        {
          "internalType": "uint256",
          "name": "_value",
          "type": "uint256"
        }
      ],
      "name": "setMaxNFT",
      "outputs": [],
      "stateMutability": "nonpayable",
      "type": "function"
    },
    {
      "inputs": [
        {
          "internalType": "uint256",
          "name": "_amount",
          "type": "uint256"
        }
      ],
      "name": "withdraw",
      "outputs": [],
      "stateMutability": "nonpayable",
      "type": "function"
    },
    {
      "inputs": [],
      "name": "withdrawAll",
      "outputs": [],
      "stateMutability": "nonpayable",
      "type": "function"
    }
  ],
  "bytecode": "0x60806040523480156200001157600080fd5b5060405162000edb38038062000edb833981016040819052620000349162000212565b6200005a6200004b640100000000620001be810204565b640100000000620001c2810204565b60048054600160a060020a031916600160a060020a03831617905560408051808201909152600a81527f636f6d6d6f6e2e6d7034000000000000000000000000000000000000000000006020820152600990620000b890826200031b565b5060408051808201909152600c81527f756e636f6d6d6f6e2e6d703400000000000000000000000000000000000000006020820152600a90620000fc90826200031b565b5060408051808201909152600881527f726172652e6d70340000000000000000000000000000000000000000000000006020820152600b906200014090826200031b565b5060408051808201909152600881527f657069632e6d70340000000000000000000000000000000000000000000000006020820152600c906200018490826200031b565b50506103e8600355660e35fa931a0000600555661ff973cafa8000600655662aa1efb94e000060075566b1a2bc2ec50000600855620003ee565b3390565b60008054600160a060020a03838116600160a060020a0319831681178455604051919092169283917f8be0079c531659141344cd1fd0a4f28419497f9722a3daafe3b4186f6b6457e09190a35050565b6000602082840312156200022557600080fd5b8151600160a060020a03811681146200023d57600080fd5b9392505050565b7f4e487b7100000000000000000000000000000000000000000000000000000000600052604160045260246000fd5b6002810460018216806200028857607f821691505b602082108103620002c2577f4e487b7100000000000000000000000000000000000000000000000000000000600052602260045260246000fd5b50919050565b601f82111562000316576000818152602081206020601f86010481016020861015620002f15750805b6020601f860104820191505b818110156200031257828155600101620002fd565b5050505b505050565b815167ffffffffffffffff81111562000338576200033862000244565b620003508162000349845462000273565b84620002c8565b602080601f8311600181146200038c57600084156200036f5750858301515b60028086026008870290910a600019041982161786555062000312565b600085815260208120601f198616915b82811015620003bd578886015182559484019460019091019084016200039c565b5085821015620003de57878501516008601f88160260020a60001904191681555b5050505050600202600101905550565b610add80620003fe6000396000f3fe608060405260043610610147576000357c010000000000000000000000000000000000000000000000000000000090048063660e01e8116100c85780638da5cb5b1161008c5780638da5cb5b146102d4578063911d99ff14610306578063c9be9c8214610326578063f2fde38b14610346578063f70adf4814610366578063fc0c546a1461036e57600080fd5b8063660e01e814610254578063715018a61461027457806378638cbe14610289578063853828b6146102a95780638804b76f146102be57600080fd5b80633e34a3cb1161010f5780633e34a3cb146101c75780634114ddc3146101dd578063445df9d6146101f3578063584092421461022c5780635c2967751461024c57600080fd5b806314e29c021461014c57806315a287431461017557806318bf3b621461017f57806327182d69146101875780632e1a7d4d146101a7575b600080fd5b34801561015857600080fd5b5061016260065481565b6040519081526020015b60405180910390f35b61017d61038e565b005b61017d610452565b34801561019357600080fd5b5061017d6101a23660046108dd565b610488565b3480156101b357600080fd5b5061017d6101c23660046108dd565b610495565b3480156101d357600080fd5b5061016260085481565b3480156101e957600080fd5b5061016260055481565b3480156101ff57600080fd5b5060055460065460075460085460408051948552602085019390935291830152606082015260800161016c565b34801561023857600080fd5b5061017d6102473660046108dd565b61052d565b61017d61053a565b34801561026057600080fd5b5061017d61026f3660046108dd565b610570565b34801561028057600080fd5b5061017d61057d565b34801561029557600080fd5b5061017d6102a43660046108f6565b61058f565b3480156102b557600080fd5b5061017d6105ab565b3480156102ca57600080fd5b5061016260075481565b3480156102e057600080fd5b50600054600160a060020a03165b604051600160a060020a03909116815260200161016c565b34801561031257600080fd5b5061017d6103213660046108dd565b6105fa565b34801561033257600080fd5b5061017d6103413660046108dd565b610607565b34801561035257600080fd5b5061017d610361366004610928565b610614565b61017d6106a4565b34801561037a57600080fd5b506004546102ee90600160a060020a031681565b60065434146103bb5760405160e560020a62461bcd0281526004016103b290610958565b60405180910390fd5b6104503334600a80546103cd906109b5565b80601f01602080910402602001604051908101604052809291908181526020018280546103f9906109b5565b80156104465780601f1061041b57610100808354040283529160200191610446565b820191906000526020600020905b81548152906001019060200180831161042957829003601f168201915b50505050506106da565b565b60075434146104765760405160e560020a62461bcd0281526004016103b290610958565b6104503334600b80546103cd906109b5565b610490610823565b600655565b61049d610823565b303181106104f05760405160e560020a62461bcd02815260206004820152601360248201527f496e737566696369656e7420666f756e64732e0000000000000000000000000060448201526064016103b2565b60008054604051600160a060020a039091169183156108fc02918491818181858888f19350505050158015610529573d6000803e3d6000fd5b5050565b610535610823565b600355565b600554341461055e5760405160e560020a62461bcd0281526004016103b290610958565b6104503334600980546103cd906109b5565b610578610823565b600755565b610585610823565b6104506000610880565b610597610823565b600593909355600691909155600755600855565b6105b3610823565b600054600160a060020a0316604051600160a060020a039190911690303180156108fc02916000818181858888f193505050501580156105f7573d6000803e3d6000fd5b50565b610602610823565b600855565b61060f610823565b600555565b61061c610823565b600160a060020a03811661069b5760405160e560020a62461bcd02815260206004820152602660248201527f4f776e61626c653a206e6577206f776e657220697320746865207a65726f206160448201527f646472657373000000000000000000000000000000000000000000000000000060648201526084016103b2565b6105f781610880565b60085434146106c85760405160e560020a62461bcd0281526004016103b290610958565b6104503334600c80546103cd906109b5565b600254600354116107305760405160e560020a62461bcd02815260206004820152600960248201527f536f6c64206f75742e000000000000000000000000000000000000000000000060448201526064016103b2565b600160a060020a03831660009081526001602081905260408220805460ff19169091179055600280549161076383610a08565b909155505060008054604051600160a060020a039091169184156108fc02918591818181858888f193505050501580156107a1573d6000803e3d6000fd5b50600480546040517fd204c45e000000000000000000000000000000000000000000000000000000008152600160a060020a039091169163d204c45e916107ec918791869101610a48565b600060405180830381600087803b15801561080657600080fd5b505af115801561081a573d6000803e3d6000fd5b50505050505050565b600054600160a060020a031633146104505760405160e560020a62461bcd02815260206004820181905260248201527f4f776e61626c653a2063616c6c6572206973206e6f7420746865206f776e657260448201526064016103b2565b60008054600160a060020a0383811673ffffffffffffffffffffffffffffffffffffffff19831681178455604051919092169283917f8be0079c531659141344cd1fd0a4f28419497f9722a3daafe3b4186f6b6457e09190a35050565b6000602082840312156108ef57600080fd5b5035919050565b6000806000806080858703121561090c57600080fd5b5050823594602084013594506040840135936060013592509050565b60006020828403121561093a57600080fd5b8135600160a060020a038116811461095157600080fd5b9392505050565b60208082526024908201527f596f75206e65656420746f20737065636966792074686520726967687420707260408201527f6963652e00000000000000000000000000000000000000000000000000000000606082015260800190565b6002810460018216806109c957607f821691505b602082108103610a02577f4e487b7100000000000000000000000000000000000000000000000000000000600052602260045260246000fd5b50919050565b600060018201610a41577f4e487b7100000000000000000000000000000000000000000000000000000000600052601160045260246000fd5b5060010190565b600160a060020a038316815260006020604081840152835180604085015260005b81811015610a8557858101830151858201606001528201610a69565b506000606082860101526060601f19601f83011685010192505050939250505056fea2646970667358221220a36c3bb1cb34ca9bc068d1ee70d68f453d110fb0362490c3f7d9279a45189afe64736f6c63430008110033",
  "immutableReferences": {},
  "source": "// SPDX-License-Identifier: MIT\r\npragma solidity ^0.8.4;\r\n\r\nimport \"@openzeppelin/contracts/access/Ownable.sol\";\r\n\r\ninterface IERC721LTSTicket {\r\n    function safeMint(address to, string memory uri) external;\r\n}\r\n\r\ncontract LTSTicketSeller is Ownable {\r\n    mapping(address => bool) buyers;\r\n    uint256 nftPurchased;\r\n    uint256 maxNft;\r\n    IERC721LTSTicket public token;\r\n\r\n    uint256 public nftCommonPrice;\r\n    uint256 public nftUncommonPrice;\r\n    uint256 public nftRarePrice;\r\n    uint256 public nftEpicPrice;\r\n\r\n    string uriCommon;\r\n    string uriUncommon;\r\n    string uriRare;\r\n    string uriEpic;\r\n\r\n    constructor(address _token) {\r\n        token = IERC721LTSTicket(_token);\r\n        uriCommon = \"common.mp4\";\r\n        uriUncommon = \"uncommon.mp4\";\r\n        uriRare = \"rare.mp4\";\r\n        uriEpic = \"epic.mp4\";\r\n\r\n        maxNft = 1000;\r\n        nftCommonPrice =   4000000000000000;\r\n        nftUncommonPrice = 9000000000000000;\r\n        nftRarePrice =     12000000000000000;\r\n        nftEpicPrice =     50000000000000000;\r\n    }\r\n\r\n    function purchasecommon() public payable {\r\n        require(\r\n            msg.value == nftCommonPrice,\r\n            \"You need to specify the right price.\"\r\n        );\r\n        mintAndTransfer(msg.sender, msg.value, uriCommon);\r\n    }\r\n\r\n    function purchaseUncommon() public payable {\r\n        require(\r\n            msg.value == nftUncommonPrice,\r\n            \"You need to specify the right price.\"\r\n        );\r\n        mintAndTransfer(msg.sender, msg.value, uriUncommon);\r\n    }\r\n\r\n    function purchaseRare() public payable {\r\n        require(\r\n            msg.value == nftRarePrice,\r\n            \"You need to specify the right price.\"\r\n        );\r\n        mintAndTransfer(msg.sender, msg.value, uriRare);\r\n    }\r\n\r\n    function purchaseEpic() public payable {\r\n        require(\r\n            msg.value == nftEpicPrice,\r\n            \"You need to specify the right price.\"\r\n        );\r\n        mintAndTransfer(msg.sender, msg.value, uriEpic);\r\n    }\r\n\r\n    function mintAndTransfer(\r\n        address _buyer,\r\n        uint256 _value,\r\n        string memory _uri\r\n    ) private {\r\n        require(maxNft > nftPurchased, \"Sold out.\");\r\n        buyers[_buyer] = true;\r\n        nftPurchased++;\r\n        payable(owner()).transfer(_value);\r\n        token.safeMint(_buyer, _uri);\r\n    }\r\n\r\n    function setcommonPrice(uint256 _price) public onlyOwner {\r\n        nftCommonPrice = _price;\r\n    }\r\n\r\n    function setUncommonPrice(uint256 _price) public onlyOwner {\r\n        nftUncommonPrice = _price;\r\n    }\r\n\r\n    function setRarePrice(uint256 _price) public onlyOwner {\r\n        nftRarePrice = _price;\r\n    }\r\n\r\n    function setEpicPrice(uint256 _price) public onlyOwner {\r\n        nftEpicPrice = _price;\r\n    }\r\n\r\n    function getAllPrices() public view returns (uint256, uint256, uint256, uint256) {\r\n        return (nftCommonPrice, nftUncommonPrice, nftRarePrice, nftEpicPrice);\r\n    }\r\n\r\n    function setAllPrices(\r\n        uint256 _price1,\r\n        uint256 _price2,\r\n        uint256 _price3,\r\n        uint256 _price4\r\n    ) public onlyOwner {\r\n        nftCommonPrice = _price1;\r\n        nftUncommonPrice = _price2;\r\n        nftRarePrice = _price3;\r\n        nftEpicPrice = _price4;\r\n    }\r\n\r\n    function setMaxNFT(uint256 _value) public onlyOwner {\r\n        maxNft = _value;\r\n    }\r\n\r\n    function withdraw(uint256 _amount) public onlyOwner {\r\n        require(address(this).balance > _amount, \"Insuficient founds.\");\r\n        payable(owner()).transfer(_amount);\r\n    }\r\n\r\n    function withdrawAll() public onlyOwner {\r\n        payable(owner()).transfer(address(this).balance);\r\n    }\r\n}\r\n",
  "sourcePath": "C:\\lucas_blockchain\\Projetos\\lts-chain\\truffle\\contracts\\LTSTicketSeller.sol",
  "compiler": {
    "name": "solc",
    "version": "0.8.17+commit.8df45f5f.Emscripten.clang"
  },
  "schemaVersion": "3.4.10",
  "updatedAt": "2022-11-05T15:37:01.940Z",
  "networkType": "ethereum",
  "devdoc": {
    "kind": "dev",
    "methods": {
      "owner()": {
        "details": "Returns the address of the current owner."
      },
      "renounceOwnership()": {
        "details": "Leaves the contract without owner. It will not be possible to call `onlyOwner` functions anymore. Can only be called by the current owner. NOTE: Renouncing ownership will leave the contract without an owner, thereby removing any functionality that is only available to the owner."
      },
      "transferOwnership(address)": {
        "details": "Transfers ownership of the contract to a new account (`newOwner`). Can only be called by the current owner."
      }
    },
    "version": 1
  },
  "userdoc": {
    "kind": "user",
    "methods": {},
    "version": 1
  }
}